:020000040000FA
:0400000093EF3FF04B
:107F12003F0006005B004F0066006D007D00070019
:107F22007F006F00120EF66E7F0EF76E000EF86E77
:107F320000EE01F010EE14F00900F5CFEEFFE5506F
:107F4200E150FAE11A6A196A186A176A166A156A1A
:107F52000001ACEF3FF0000E936E01C081FF946808
:107F6200000E1C6E040E1B6E82B0BAEF3FF0BCEF27
:107F72003FF0D3EF3FF01B4A1C2A82A0C3EF3FF031
:107F8200C5EF3FF0BEEF3FF00A0E1B181C10D8A43D
:107F9200CDEF3FF0CFEF3FF0D3EF3FF0000E1C6E7E
:107FA200000E1B6E82B2D8EF3FF0DAEF3FF0F1EF36
:107FB2003FF01B501C10D8A4E1EF3FF0E3EF3FF07D
:107FC200E7EF3FF0000E1C6E0A0E1B6E1B06D8A0D8
:107FD2001C0682A2EFEF3FF0F1EF3FF0EAEF3FF035
:107FE200D8901B34D96E1C34DA6E010ED926000EDD
:0E7FF200DA22DF50816EB5EF3FF000EF00F0B5
:020000040020DA
:08000000FFFFFFFFFFFFFFFF00
:020000040030CA
:0E000000FF071F1EFF0180FF0FC00FE00F4023
:00000001FF
