:020000040000FA
:0400000007EF00F016
:0A000800638284ED0CF08BEF12F020
:10060000002063687563203233206D756E670000CB
:100610000001B851800BC16FB851B825C76FB7AF93
:1006200014EF03F016EF03F017EF03F0C781C75183
:10063000D8B41DEF03F01FEF03F032EF03F0C7292A
:10064000D8A425EF03F027EF03F02FEF03F0000EFF
:10065000B56F000EB66F000EB76F000EB86FB78F94
:100660003AEF03F0000EB56F000EB66F000EB76FD5
:10067000000EB86FBC51800BC11BBC51BC25C66FAE
:10068000BBAF45EF03F047EF03F048EF03F0C6813F
:10069000C651D8B44EEF03F050EF03F063EF03F010
:1006A000C629D8A456EF03F058EF03F060EF03F02B
:1006B000000EB96F000EBA6F000EBB6F000EBC6F5C
:1006C000BB8F6BEF03F0000EB96F000EBA6F000E18
:1006D000BB6F000EBC6FC651D8B471EF03F073EF5F
:1006E00003F07BEF03F0C751D8A479EF03F07BEF61
:1006F00003F085EF03F0000EB56F000EB66F000E2D
:10070000B76F000EB86F1DEF05F0BB51B503F3CF07
:10071000CCF0F4CFCDF0CC51C26FC36BC46BC56BC2
:10072000CD51C86FC96BCA6BCB6BBA51B603F3CF4F
:10073000CCF0F4CFCDF0CC51C227000EC323C4239C
:10074000C523CD51C827000EC923CA23CB23B951D5
:10075000B703F3CFCCF0F4CFCDF0CC51C227000ECD
:10076000C323C423C523CD51C827000EC923CA23E0
:10077000CB23C4C0C5F0C3C0C4F0C2C0C3F0C26BB9
:10078000B951B603F3CFCCF0F4CFCDF0CC51C227A2
:10079000CD51C323000EC423000EC523BA51B503A7
:1007A000F3CFCCF0F4CFCDF0CC51C227CD51C32341
:1007B000000EC423000EC523C4C0C5F0C3C0C4F0DE
:1007C000C2C0C3F0C26BB951B503F3CFCCF0F4CFC4
:1007D000CDF0CC51C227CD51C323000EC423000E4F
:1007E000C523BB51B603F3CFCCF0F4CFCDF0CC5141
:1007F000C827CD51C923000ECA23000ECB23BA51FE
:10080000B703F3CFCCF0F4CFCDF0CC51C827CD5106
:10081000C923000ECA23000ECB23BB51B703F3CF6D
:10082000CCF0F4CFCDF0CC51BD6FCD51BE6FBF6BCE
:10083000C06BBFC0C0F0BEC0BFF0BDC0BEF0BD6BDE
:10084000BD51C827BE51C923BF51CA23C051CB23B4
:10085000C2C0BDF0C3C0BEF0C4C0BFF0C5C0C0F0D0
:10086000190E38EF04F0D890C033BF33BE33BD3318
:10087000E82E33EF04F0BD51C827BE51C923BF5144
:10088000CA23C051CB23C4C0C5F0C3C0C4F0C2C08A
:10089000C3F0C26BC651C7C0BDF0BE6BBD27000E12
:1008A000BE23820EBD25CC6FFF0EBE21CD6F6EEF35
:1008B00004F0D890C837C937CA37CB37C5AF63EF14
:1008C00004F065EF04F066EF04F0C881D890C237F9
:1008D000C337C437C537CC07D8A0CD07CAAF73EF2D
:1008E00004F075EF04F059EF04F0000EC66FC5AFC9
:1008F0007CEF04F07EEF04F0A2EF04F0FF0EC215CF
:10090000BD6FFF0EC315BE6FFF0EC415BF6F7F0E08
:10091000C515C06FBD51BE11BF11C011D8B493EF42
:1009200004F095EF04F099EF04F0010EC66FA2EF0A
:1009300004F0C8A19EEF04F0A0EF04F0A2EF04F0D1
:1009400095EF04F0C651D8B4A8EF04F0AAEF04F074
:10095000CEEF04F0010EC827000EC923CA23CB2313
:10096000CBA1B5EF04F0B7EF04F0CEEF04F0C8C0B0
:10097000BDF0C9C0BEF0CAC0BFF0CBC0C0F0C0352A
:10098000C033BF33BE33BD33BDC0C8F0BEC0C9F035
:10099000BFC0CAF0C0C0CBF0CC4BCD2BCDBFD9EF80
:1009A00004F0CD5108E1CC29D8A0D9EF04F0DBEF59
:1009B00004F0E5EF04F0000EC86F000EC96F800E62
:1009C000CA6F7F0ECB6F13EF05F0CDBFF2EF04F0CF
:1009D000CD5106E1CC05D8B0F0EF04F0F2EF04F011
:1009E000FEEF04F0000EC86F000EC96F000ECA6F54
:1009F000000ECB6F000EC16F13EF05F0CCC0C7F037
:100A0000FF0EC817FF0EC9177F0ECA17000ECB17AF
:100A1000C7A10DEF05F00FEF05F010EF05F0CA8F3D
:100A2000D890C731CB6FC151CB13C8C0B5F0C9C086
:100A3000B6F0CAC0B7F0CBC0B8F012003950800B86
:100A4000426E39503924486E38AE29EF05F02BEF4D
:100A500005F02CEF05F048804850D8B432EF05F08F
:100A600034EF05F047EF05F04828D8A43AEF05F039
:100A70003CEF05F044EF05F0000E366E000E376EC9
:100A8000000E386E000E396E388E4FEF05F0000EF6
:100A9000366E000E376E000E386E000E396E3D5009
:100AA000800B421A3D503D24476E3CAE5AEF05F094
:100AB0005CEF05F05DEF05F047804750D8B463EF79
:100AC00005F065EF05F078EF05F04728D8A46BEF47
:100AD00005F06DEF05F075EF05F0000E3A6E000EB3
:100AE0003B6E000E3C6E000E3D6E3C8E80EF05F0BE
:100AF000000E3A6E000E3B6E000E3C6E000E3D6E18
:100B00004750D8B486EF05F088EF05F090EF05F078
:100B10004850D8A48EEF05F090EF05F09AEF05F05D
:100B2000000E366E000E376E000E386E000E396EF7
:100B300032EF07F03C503602F3CF4DF0F4CF4EF0D9
:100B40004D50436E446A456A466A4E50496E4A6A41
:100B50004B6A4C6A3B503702F3CF4DF0F4CF4EF066
:100B60004D504326000E4422452246224E5049262F
:100B7000000E4A224B224C223A503802F3CF4DF05D
:100B8000F4CF4EF04D504326000E4422452246221B
:100B90004E504926000E4A224B224C2245C046F0B8
:100BA00044C045F043C044F0436A3A503702F3CFA3
:100BB0004DF0F4CF4EF04D5043264E504422000EDF
:100BC0004522000E46223B503602F3CF4DF0F4CFC3
:100BD0004EF04D5043264E504422000E4522000E4A
:100BE000462245C046F044C045F043C044F0436A45
:100BF0003A503602F3CF4DF0F4CF4EF04D5043262D
:100C00004E504422000E4522000E46223C50370230
:100C1000F3CF4DF0F4CF4EF04D5049264E504A22BE
:100C2000000E4B22000E4C223B503802F3CF4DF009
:100C3000F4CF4EF04D5049264E504A22000E4B2222
:100C4000000E4C223C503802F3CF4DF0F4CF4EF062
:100C50004D503E6E4E503F6E406A416A40C041F07A
:100C60003FC040F03EC03FF03E6A3E5049263F50F4
:100C70004A2240504B2241504C2243C03EF044C0D7
:100C80003FF045C040F046C041F0190E4DEF06F070
:100C9000D890413240323F323E32E82E48EF06F0E3
:100CA0003E5049263F504A2240504B2241504C2250
:100CB00045C046F044C045F043C044F0436A475045
:100CC00048C03EF03F6A3E26000E3F22820E3E2480
:100CD0004D6EFF0E3F204E6E83EF06F0D8904936E2
:100CE0004A364B364C3646AE78EF06F07AEF06F0D1
:100CF0007BEF06F04980D890433644364536463679
:100D00004D06D8A04E064BAE88EF06F08AEF06F0EF
:100D10006EEF06F0000E476E46AE91EF06F093EFD1
:100D200006F0B7EF06F0FF0E43143E6EFF0E4414BC
:100D30003F6EFF0E4514406E7F0E4614416E3E50CE
:100D40003F1040104110D8B4A8EF06F0AAEF06F00B
:100D5000AEEF06F0010E476EB7EF06F049A0B3EF15
:100D600006F0B5EF06F0B7EF06F0AAEF06F0475031
:100D7000D8B4BDEF06F0BFEF06F0E3EF06F0010ECA
:100D80004926000E4A224B224C224CA0CAEF06F004
:100D9000CCEF06F0E3EF06F049C03EF04AC03FF06A
:100DA0004BC040F04CC041F04134413240323F3200
:100DB0003E323EC049F03FC04AF040C04BF041C017
:100DC0004CF04D4A4E2A4EBEEEEF06F04E5008E172
:100DD0004D28D8A0EEEF06F0F0EF06F0FAEF06F09F
:100DE000000E496E000E4A6E800E4B6E7F0E4C6EEA
:100DF00028EF07F04EBE07EF07F04E5006E14D0416
:100E0000D8B005EF07F007EF07F013EF07F0000E7B
:100E1000496E000E4A6E000E4B6E000E4C6E000EB8
:100E2000426E28EF07F04DC048F0FF0E4916FF0E46
:100E30004A167F0E4B16000E4C1648A022EF07F004
:100E400024EF07F025EF07F04B8ED89048304C6E1A
:100E500042504C1249C036F04AC037F04BC038F00F
:100E60004CC039F0120000019F51800BAC6F9F51B4
:100E70009F25B36F9EAF3FEF07F041EF07F042EFC2
:100E800007F0B381B351D8B448EF07F04AEF07F049
:100E90005FEF07F0B329D8A450EF07F052EF07F047
:100EA0005AEF07F0000E9C6F000E9D6F000E9E6FB4
:100EB000000E9F6F9E8F000E9F6F67EF07F0000E72
:100EC0009C6F000E9D6F000E9E6F000E9F6FA351D2
:100ED000800BAC1BA351A325B46FA2AF72EF07F038
:100EE00074EF07F075EF07F0B481B451D8B47BEF1D
:100EF00007F07DEF07F092EF07F0B429D8A483EF55
:100F000007F085EF07F08DEF07F0000EA06F000EE1
:100F1000A16F000EA26F000EA36FA28F000EA36F31
:100F20009AEF07F0000EA06F000EA16F000EA26FE7
:100F3000000EA36FA051A111A211A311D8A4A3EF79
:100F400007F0A5EF07F0BDEF07F0000E9C6F000E55
:100F50009D6F000E9E6F000E9F6F800E9E137F0E82
:100F60009F13AC519F139CC09CF09DC09DF09EC0F0
:100F70009EF09FC09FF000EF09F0B351D8A4C3EFDB
:100F800007F0C5EF07F0CFEF07F0000E9C6F000EE3
:100F90009D6F000E9E6F000E9F6F00EF09F0B45121
:100FA000B3C0A4F0A56BA45F000EA55B7F0EA425C3
:100FB000AD6F000EA521AE6F9CC0A8F09DC0A9F03A
:100FC0009EC0AAF09FC0ABF0000E9C6F000E9D6FFC
:100FD000000E9E6F000E9F6F000EAF6F000EB06F81
:100FE000000EB16F000EB26F000EB46F30EF08F05C
:100FF000B451D8B4FEEF07F000EF08F017EF08F097
:10100000D890A837A937AA37AB37D8909C379D37E7
:101010009E379F37B2AF0FEF08F011EF08F012EFD5
:1010200008F09C81D890AF37B037B137B237A051B4
:10103000A85DA151A959A251AA59A351AB59D8A051
:1010400024EF08F026EF08F02FEF08F0B28DA05142
:10105000A85FA151A95BA251AA5BA351AB5BB42BC2
:10106000190EB46536EF08F038EF08F0F8EF07F026
:10107000A851A911AA11AB11D8B441EF08F043EF60
:1010800008F05BEF08F0AF815BEF08F0D8909C3779
:101090009D379E379F37B2AF50EF08F052EF08F000
:1010A00053EF08F09C81D890AF37B037B137B237E3
:1010B000AD07D8A0AE079EAF60EF08F062EF08F072
:1010C00046EF08F0000EB46FB2AF69EF08F06BEFB7
:1010D00008F08FEF08F0FF0EAF15A46FFF0EB015EC
:1010E000A56FFF0EB115A66F7F0EB215A76FA451A5
:1010F000A511A611A711D8B480EF08F082EF08F06F
:1011000086EF08F0010EB46F8FEF08F09CA18BEF13
:1011100008F08DEF08F08FEF08F082EF08F0B4517F
:10112000D8B495EF08F097EF08F0BBEF08F0010E88
:101130009C27000E9D239E239F239FA1A2EF08F0D2
:10114000A4EF08F0BBEF08F09CC0A4F09DC0A5F090
:101150009EC0A6F09FC0A7F0A735A733A633A5333E
:10116000A433A4C09CF0A5C09DF0A6C09EF0A7C06B
:101170009FF0AD4BAE2BAEBFC6EF08F0AE5108E10D
:10118000AD29D8A0C6EF08F0C8EF08F0D3EF08F0FB
:10119000000EAE6FAD69000E9C6F000E9D6F000ECD
:1011A0009E6F000E9F6FAEBFE0EF08F0AE5106E1FC
:1011B000AD05D8B0DEEF08F0E0EF08F0EEEF08F094
:1011C000000EAE6F000EAD6F000E9C6F000E9D6F97
:1011D000000E9E6F000E9F6F000EAC6FADC0B3F09F
:1011E000B3A1F5EF08F0F7EF08F0FAEF08F09E8FE3
:1011F000FBEF08F09E9FD890B3319F6FB1EF07F0DF
:1012000012002050800B2D6E20502024346E1FAE13
:101210000CEF09F00EEF09F00FEF09F034803450B5
:10122000D8B415EF09F017EF09F02CEF09F03428C6
:10123000D8A41DEF09F01FEF09F027EF09F0000E09
:101240001D6E000E1E6E000E1F6E000E206E1F8E95
:10125000000E206E34EF09F0000E1D6E000E1E6EA3
:10126000000E1F6E000E206E2450800B2D1A24508D
:101270002424356E23AE3FEF09F041EF09F042EF31
:1012800009F035803550D8B448EF09F04AEF09F03D
:101290005FEF09F03528D8A450EF09F052EF09F0BC
:1012A0005AEF09F0000E216E000E226E000E236E22
:1012B000000E246E238E000E246E67EF09F0000EE0
:1012C000216E000E226E000E236E000E246E215041
:1012D000221023102410D8A470EF09F072EF09F047
:1012E0008AEF09F0000E1D6E000E1E6E000E1F6EBE
:1012F000000E206E800E1F127F0E20122D50201225
:101300001DC01DF01EC01EF01FC01FF020C020F029
:10131000CDEF0AF03450D8A490EF09F092EF09F025
:101320009CEF09F0000E1D6E000E1E6E000E1F6E6B
:10133000000E206ECDEF0AF0355034C025F0266A3D
:10134000255E000E265A7F0E25242E6E000E2620C6
:101350002F6E1DC029F01EC02AF01FC02BF020C028
:101360002CF0000E1D6E000E1E6E000E1F6E000E85
:10137000206E000E306E000E316E000E326E000ECA
:10138000336E000E356EFDEF09F03550D8B4CBEF5B
:1013900009F0CDEF09F0E4EF09F0D89029362A36AC
:1013A0002B362C36D8901D361E361F36203633AEDF
:1013B000DCEF09F0DEEF09F0DFEF09F01D80D890D7
:1013C00030363136323633362150295C22502A5895
:1013D00023502B5824502C58D8A0F1EF09F0F3EFEC
:1013E00009F0FCEF09F0338C2150295E22502A5A73
:1013F00023502B5A24502C5A352A190E356403EFEA
:101400000AF005EF0AF0C5EF09F029502A102B1059
:101410002C10D8B40EEF0AF010EF0AF028EF0AF003
:10142000308028EF0AF0D8901D361E361F36203641
:1014300033AE1DEF0AF01FEF0AF020EF0AF01D8017
:10144000D89030363136323633362E06D8A02F06B5
:101450001FAE2DEF0AF02FEF0AF013EF0AF0000E87
:10146000356E33AE36EF0AF038EF0AF05CEF0AF073
:10147000FF0E3014256EFF0E3114266EFF0E32144F
:10148000276E7F0E3314286E255026102710281043
:10149000D8B44DEF0AF04FEF0AF053EF0AF0010E07
:1014A000356E5CEF0AF01DA058EF0AF05AEF0AF013
:1014B0005CEF0AF04FEF0AF03550D8B462EF0AF053
:1014C00064EF0AF088EF0AF0010E1D26000E1E22BE
:1014D0001F22202220A06FEF0AF071EF0AF088EFA0
:1014E0000AF01DC025F01EC026F01FC027F020C046
:1014F00028F02834283227322632253225C01DF024
:1015000026C01EF027C01FF028C020F02E4A2F2A28
:101510002FBE93EF0AF02F5008E12E28D8A093EFAA
:101520000AF095EF0AF0A0EF0AF0000E2F6E2E6879
:10153000000E1D6E000E1E6E000E1F6E000E206E41
:101540002FBEADEF0AF02F5006E12E04D8B0ABEF5E
:101550000AF0ADEF0AF0BBEF0AF0000E2F6E000E9E
:101560002E6E000E1D6E000E1E6E000E1F6E000E03
:10157000206E000E2D6E2EC034F034A0C2EF0AF0A3
:10158000C4EF0AF0C7EF0AF01F8EC8EF0AF01F9EE3
:10159000D8903430206E7EEF09F012000001966F73
:1015A00000019651D8B4D7EF0AF0D9EF0AF0FBEF5B
:1015B0000AF091BFE0EF0AF0DEEF0AF0FBEF0AF06D
:1015C0008EC092F08FC093F090C094F091C095F0CF
:1015D000921F931F941F951F922B000E9323942309
:1015E000952392C098F093C099F094C09AF095C05A
:1015F0009BF003EF0BF08EC098F08FC099F090C075
:101600009AF091C09BF08E518F1190119111D8A436
:101610000CEF0BF00EEF0BF018EF0BF0000E8E6FCF
:10162000000E8F6F000E906F000E916FA9EF0BF000
:10163000960E976F22EF0BF0972BD8909B339A332F
:1016400099339833000E9815926F000E9915936F89
:10165000000E9A15946FFE0E9B15956F9251931183
:1016600094119511D8A437EF0BF039EF0BF01CEF64
:101670000BF047EF0BF0972B010E9827000E9923E4
:101680009A239B23D8909B339A3399339833000E37
:101690009815926F000E9915936F000E9A15946F1E
:1016A000FF0E9B15956F9251931194119511D8A42B
:1016B0005CEF0BF05EEF0BF03BEF0BF066EF0BF027
:1016C0009707D890983799379A379B379ABF6BEF1F
:1016D0000BF06DEF0BF075EF0BF0020E976173EFEF
:1016E0000BF075EF0BF060EF0BF097B17AEF0BF0AA
:1016F0007CEF0BF07DEF0BF09A9FD890973397C05B
:1017000092F0936B946B956B92C095F0946B936B86
:10171000926B925198139351991394519A13955136
:101720009B139651D8B497EF0BF099EF0BF0A1EF04
:101730000BF091BFA0EF0BF09EEF0BF0A1EF0BF0C1
:101740009B8F98C08EF099C08FF09AC090F09BC08C
:1017500091F01200176E1750D8B4B1EF0BF0B3EF41
:101760000BF0D5EF0BF012BEBAEF0BF0B8EF0BF0A9
:10177000D5EF0BF00FC013F010C014F011C015F02E
:1017800012C016F0131E141E151E161E132A000E6C
:1017900014221522162213C019F014C01AF015C015
:1017A0001BF016C01CF0DDEF0BF00FC019F010C0DD
:1017B0001AF011C01BF012C01CF00F5010101110C5
:1017C0001210D8A4E6EF0BF0E8EF0BF0F2EF0BF0FD
:1017D000000E0F6E000E106E000E116E000E126ED7
:1017E00083EF0CF0960E186EFCEF0BF0182AD890D1
:1017F0001C321B321A321932000E1914136E000EED
:101800001A14146E000E1B14156EFE0E1C14166EA8
:101810001350141015101610D8A411EF0CF013EF7C
:101820000CF0F6EF0BF021EF0CF0182A010E192640
:10183000000E1A221B221C22D8901C321B321A3294
:101840001932000E1914136E000E1A14146E000EC5
:101850001B14156EFF0E1C14166E13501410151069
:101860001610D8A436EF0CF038EF0CF015EF0CF092
:1018700040EF0CF01806D89019361A361B361C3675
:101880001BBE45EF0CF047EF0CF04FEF0CF0020ED3
:1018900018604DEF0CF04FEF0CF03AEF0CF018B071
:1018A00054EF0CF056EF0CF057EF0CF01B9ED89055
:1018B000183218C013F0146A156A166A13C016F0AD
:1018C000156A146A136A1350191214501A1215501B
:1018D0001B1216501C121750D8B471EF0CF073EF96
:1018E0000CF07BEF0CF012BE7AEF0CF078EF0CF0FE
:1018F0007BEF0CF01C8E19C00FF01AC010F01BC04B
:1019000011F01CC012F012000600F3CF5FF0F4CF0C
:1019100060F0F2A08EEF0CF090EF0CF033EF0DF0D2
:1019200081B895EF0CF097EF0CF0BFEF0CF083A8A7
:101930009CEF0CF09FEF0CF08388A0EF0CF08398E5
:1019400061506210D8A4A7EF0CF0A9EF0CF0B5EF2E
:101950000CF0000E626E010E616E010E5A6E000EEA
:10196000596EC7EC0DF0BFEF0CF0000E626E000E6A
:10197000616E000E5A6E000E596EC7EC0DF081BA02
:10198000C4EF0CF0C6EF0CF0F7EF0CF083AACBEF2E
:101990000CF0CEEF0CF0838ACFEF0CF0839A610449
:1019A0006210D8A4D6EF0CF0D8EF0CF0E4EF0CF0F6
:1019B000000E626E020E616E020E5A6E000E596EBD
:1019C000C7EC0DF0F7EF0CF0020E61186210D8A40E
:1019D000ECEF0CF0EEEF0CF0F7EF0CF0000E626E97
:1019E000030E616E030E5A6E5968C7EC0DF081BC90
:1019F000FCEF0CF0FEEF0CF033EF0DF083AC03EFD7
:101A00000DF006EF0DF0838C07EF0DF0839C030EB5
:101A100061186210D8A40FEF0DF011EF0DF01DEF5B
:101A20000DF0000E626E020E616E020E5A6E000E16
:101A3000596EC7EC0DF033EF0DF0020E6118621015
:101A4000D8A425EF0DF027EF0DF033EF0DF0000EC9
:101A5000626E010E616E010E5A6E000E596EC7EC79
:101A60000DF033EF0DF0F29060C0F4FF5FC0F3FFB4
:101A700063921100040E0001D95DD8B042EF0DF061
:101A800044EF0DF0C6EF0DF0E6C0DAF0E7C0DBF092
:101A9000E8C0DCF0E9C0DDF0020ED890DA37DB37C1
:101AA000DC37DD37E82E4DEF0DF0DAC084F0DBC017
:101AB00085F0DCC086F0DDC087F0000E806F2D0E53
:101AC000816F310E826F010E836F50EC0EF080C07B
:101AD0008EF081C08FF082C090F083C091F0010E33
:101AE000CEEC0AF08EC0B9F08FC0BAF090C0BBF057
:101AF00091C0BCF0000E0001A06FC00EA16F7F0E60
:101B0000A26F440EA36FD8C08EF0D9C08FF0906B37
:101B1000916B000ECEEC0AF08EC09CF08FC09DF051
:101B200090C09EF091C09FF033EC07F09CC0B5F0E0
:101B30009DC0B6F09EC0B7F09FC0B8F008EC03F0AF
:101B4000B5C0CEF0B6C0CFF0B7C0D0F0B8C0D1F0BD
:101B50005DEC0FF0CEC0D8F0CFC0D9F0BD9A000137
:101B6000D8B1B5EF0DF0B8EF0DF0BD88B9EF0DF0BD
:101B7000BD98D8C0DAF0D9C0DBF00001D890DB33D3
:101B8000DA33D890DB33DA33DA51BE6E1200040E4A
:101B90005A5CD8B0CEEF0DF0D0EF0DF04FEF0EF055
:101BA000E6C05BF0E7C05CF0E8C05DF0E9C05EF065
:101BB000020ED8905B365C365D365E36E82ED9EF85
:101BC0000DF05BC005F05CC006F05DC007F05EC0C4
:101BD00008F0000E016E2D0E026E310E036E010E26
:101BE000046ED7EC0EF001C00FF002C010F003C07D
:101BF00011F004C012F0010EAAEC0BF00FC03AF085
:101C000010C03BF011C03CF012C03DF0000E216E40
:101C1000C00E226E7F0E236E440E246E59C00FF04C
:101C20005AC010F0116A126A000EAAEC0BF00FC035
:101C30001DF010C01EF011C01FF012C020F001EC0A
:101C400009F01DC036F01EC037F01FC038F020C0AC
:101C500039F01EEC05F036C04FF037C050F038C0F8
:101C600051F039C052F0E1EC0FF04FC059F050C0C4
:101C70005AF0BD9A59B03FEF0EF042EF0EF0BD881A
:101C800043EF0EF0BD9859C05BF05AC05CF0D8909D
:101C90005C325B32D8905C325B325B50BE6E1200BD
:101CA000000E0001896F87BF5AEF0EF058EF0EF05B
:101CB00064EF0EF0871F861F851F846D000E85233D
:101CC00086238723010E896F83BF6BEF0EF069EFC8
:101CD0000EF075EF0EF0831F821F811F806D000EC6
:101CE000812382238323010E891B000E8A6F000E3D
:101CF0008B6F000E8C6F000E8D6F845185118611D5
:101D00008711D8B486EF0EF088EF0EF0BEEF0EF01C
:101D1000010E886F92EF0EF0D890843785378637A2
:101D20008737882B87AF97EF0EF099EF0EF08CEF87
:101D30000EF0D8908A378B378C378D378451805D81
:101D4000855181598651825987518359D8A0ABEF6B
:101D50000EF0ADEF0EF0B6EF0EF08451805F8551BE
:101D6000815B8651825B8751835B8A81D890873300
:101D7000863385338433882F99EF0EF08951D8B498
:101D8000C4EF0EF0C6EF0EF0CEEF0EF08D1F8C1FDD
:101D90008B1F8A6D000E8B238C238D238AC080F0CD
:101DA0008BC081F08CC082F08DC083F01200000ED9
:101DB0000A6E08BEE0EF0EF0DEEF0EF0EAEF0EF076
:101DC000081E071E061E056C000E062207220822AA
:101DD000010E0A6E04BEF1EF0EF0EFEF0EF0FBEF16
:101DE0000EF0041E031E021E016C000E02220322CE
:101DF0000422010E0A1A000E0B6E000E0C6E000E6D
:101E00000D6E000E0E6E0550061007100810D8B4A7
:101E10000CEF0FF00EEF0FF044EF0FF0010E096E14
:101E200018EF0FF0D8900536063607360836092A1F
:101E300008AE1DEF0FF01FEF0FF012EF0FF0D8906C
:101E40000B360C360D360E360550015C0650025826
:101E50000750035808500458D8A031EF0FF033EF63
:101E60000FF03CEF0FF00550015E0650025A07508C
:101E7000035A0850045A0B80D890083207320632B1
:101E80000532092E1FEF0FF00A50D8B44AEF0FF0B9
:101E90004CEF0FF054EF0FF00E1E0D1E0C1E0B6CCE
:101EA000000E0C220D220E220BC001F00CC002F01D
:101EB0000DC003F00EC004F012000001D035D13582
:101EC000D76FD751D8A467EF0FF069EF0FF073EF1A
:101ED0000FF0000ECE6F000ECF6F000ED06F000E11
:101EE000D16FE0EF0FF0CEC0D2F0CFC0D3F0D0C0B2
:101EF000D4F0D1C0D5F0200E83EF0FF0D890D533B9
:101F0000D433D333D233E82E7EEF0FF0D251D66FD5
:101F1000D08FFF0ECE17FF0ECF17FF0ED017000E7B
:101F2000D117960ED75FD7BF9AEF0FF098EF0FF04B
:101F3000B0EF0FF0D751800A970FD8B0A2EF0FF093
:101F4000A4EF0FF0A6EF0FF069EF0FF0D890D133A8
:101F5000D033CF33CE33D73FA6EF0FF0C8EF0FF01B
:101F60001F0ED765B6EF0FF0B8EF0FF0C0EF0FF010
:101F700069EF0FF0D890CE37CF37D037D137D707AA
:101F8000D751D8A4C6EF0FF0C8EF0FF0BAEF0FF09B
:101F9000D651D8B4CEEF0FF0D0EF0FF0D8EF0FF04E
:101FA000D11FD01FCF1FCE6D000ECF23D023D12342
:101FB000CEC0CEF0CFC0CFF0D0C0D0F0D1C0D1F0E5
:101FC000120051345234586E5850D8A4EAEF0FF032
:101FD000ECEF0FF0F6EF0FF0000E4F6E000E506EAC
:101FE000000E516E000E526E63EF10F04FC053F0B2
:101FF00050C054F051C055F052C056F0200E06EFBC
:1020000010F0D8905632553254325332E82E01EF48
:1020100010F05350576E518EFF0E4F16FF0E501694
:10202000FF0E5116000E5216960E585E58BE1DEF4A
:1020300010F01BEF10F033EF10F05850800A970F9C
:10204000D8B025EF10F027EF10F029EF10F0ECEFEB
:102050000FF0D8905232513250324F32583E29EF61
:1020600010F04BEF10F01F0E586439EF10F03BEFFB
:1020700010F043EF10F0ECEF0FF0D8904F365036E1
:102080005136523658065850D8A449EF10F04BEF4D
:1020900010F03DEF10F05750D8B451EF10F053EF5F
:1020A00010F05BEF10F0521E511E501E4F6C000ED0
:1020B0005022512252224FC04FF050C050F051C018
:1020C00051F052C052F01200270E00018F6F100E17
:1020D0008E6F88C08CF089C08DF088518911D8B47A
:1020E00074EF10F076EF10F0A0EF10F086EF10F024
:1020F0008EC080F08FC081F0000E836F0A0E826F59
:10210000E5EC10F080C08EF081C08FF08CC080F0C4
:102110008DC081F08EC082F08FC083F0E5EC10F0AE
:10212000000181BF9CEF10F0815108E18005D8A02B
:102130009CEF10F09EEF10F078EF10F0A4EF10F08D
:10214000000E8F6F010E8E6F8CC080F08DC081F0FD
:102150008EC082F08FC083F0E5EC10F080C08AF072
:1021600081C08BF000018A51300F43EC12F08EC019
:1021700080F08FC081F08AC082F08BC083F077EC52
:1021800012F0000180518C5D8C6F81518D598D6FE3
:102190008EC080F08FC081F0000E836F0A0E826FB8
:1021A000E5EC10F080C08EF081C08FF000018FBF91
:1021B000E4EF10F08F5106E18E05D8B0E2EF10F099
:1021C000E4EF10F0A4EF10F01200000E0001856F94
:1021D00083BFEFEF10F0EDEF10F0F5EF10F0826D30
:1021E000831FD8B0832B010E856F81BFFCEF10F0E9
:1021F000FAEF10F002EF11F0806D811FD8B0812B43
:10220000010E851B000E876F000E866F82518311B1
:10221000D8B40DEF11F00FEF11F037EF11F0010E00
:10222000846F17EF11F0D89082378337842B83AFF8
:102230001CEF11F01EEF11F013EF11F0D89086375C
:1022400087378251805D83518159D8A02AEF11F0E0
:102250002CEF11F031EF11F08251805F8351815BDF
:102260008681D89083338233842F1EEF11F08551FD
:10227000D8B43DEF11F03FEF11F043EF11F0866D50
:10228000871FD8B0872B86C080F087C081F01200EE
:1022900004EC12F09BEC12F0B0EC12F0880E00018E
:1022A0008E6F130E8F6F000E906F000E916FA0EC6B
:1022B00011F0000E0001D96F000ED86F3AEC0DF04E
:1022C000A9EC12F0A2EC12F0000E956E000E836ED7
:1022D000CE50CFCFDEF00001DF6BDEC0DFF0DE6B73
:1022E000DE11E06FDF51E16F1A0E0001DF6F5E0E4D
:1022F000DE6F6E0EE82EFED7DE2FFCD7DF2FFAD76B
:1023000000F0CE50CFCFDEF00001DF6BDEC0DFF09B
:10231000DE6BDE11E26FDF51E36FE051E25DE46FEF
:10232000E151E359E56FC00E5DEC12F0E4C088F0B6
:10233000E5C089F064EC10F068EF11F007EF00F0F1
:10234000000E0001806F2D0E816F310E826F010E25
:10235000836F8EC092F08FC093F090C094F091C0C4
:1023600095F0020ED8909237933794379537E82E30
:10237000B2EF11F0020ED890923793379437953719
:10238000E82EBBEF11F092C084F093C085F094C0AA
:1023900086F095C087F050EC0EF000018005CB6E02
:1023A0008EC0E6F08FC0E7F090C0E8F091C0E9F091
:1023B0001200000E0001896F000E886FF1EF11F01E
:1023C00088518425866F89518521876F86C0F6FFE5
:1023D00087C0F7FF0800F55043EC12F00001884B6E
:1023E000892B84C080F085C081F024EC12F00001BC
:1023F0008051885D81518959D8A001EF12F003EF17
:1024000012F0E0EF11F01200000E956E000E946EC7
:10241000000E826E000E836E380E5DEC12F00C0E14
:102420005DEC12F0010E5DEC12F0000E0001896F00
:10243000220E886F64EC10F0010E0001846F060E0E
:10244000856FD9EC11F0120080C082F081C083F05A
:102450002DEF12F00001804B812B80C0F6FF81C070
:10246000F7FF0800F5500009D8A439EF12F03BEF50
:1024700012F02AEF12F000018251805D806F8351CB
:102480008159816F12000001816F829C828A81C014
:1024900083FF828E070E0001806F7D0EE82EFED72F
:1024A000802FFCD7829E140E0001806F790EE82EDB
:1024B000FED7802FFCD700D012000001816F829CD4
:1024C000829A81C083FF828E070E0001806F7D0E8D
:1024D000E82EFED7802FFCD7829E140E0001806F5D
:1024E000790EE82EFED7802FFCD700D01200000115
:1024F00080518203F3CF84F0F4CF85F080518303C1
:10250000F350852781518203F350852784C080F0E2
:1025100085C081F012000001E96BE86BE76BE66BA8
:10252000626A616A63906392000EF86E060EF76E3F
:10253000000148EF11F0030ECD6E000ECE6E000EBE
:10254000CF6E120093688168000EF26EF286F28EF2
:102550001200BD86BD84CA80CA92CA8494941200B7
:0A25600094969498829682881200E7
:020000040020DA
:08000000FFFFFFFFFFFFFFFF00
:020000040030CA
:0E000000FF07191EFF0180FF0FC00FE00F4029
:00000001FF
