:020000040000FA
:060000000A128A11EE2F26
:100B5C00FF3083120313870007117008F20072072D
:100B6C00203E84008313000886000800FF308312A7
:100B7C000313870087117008F2007207203E84006F
:100B8C008313000886000800FF30831203138700CC
:100B9C0007107008F2007207203E840083130008CF
:100BAC0086000800FF30831203138700871070083B
:100BBC00F2007207203E84008313000886000800B0
:100BCC007E088A007F0882000A128A11E6250A1222
:100BDC008A118000840A04087D0603190034FF0A78
:100BEC000319FE0AEA2D3F340034063400345B341A
:100BFC0000344F340034663400346D3400347D34AA
:100C0C000034073400347F3400346F340034F60180
:100C1C00F31F112E122E192EF209F309F20A0319E1
:100C2C00F30AF601F60AF11F1C2E1D2E222EF009D6
:100C3C00F109F00A0319F10A700871040319272E3F
:100C4C00282E572EF501F50A362E01300310F00D23
:100C5C00F10DFF3E031D2C2E0130F4007408F50736
:100C6C00F11F392E3A2E2B2E71087302031D402EC4
:100C7C0070087202031C432E442E4A2E7008F20296
:100C8C007108031CF303F30201300310F10CF00C98
:100C9C00FF3E031D4B2E0130F502031D562E572E21
:100CAC003A2E760803195B2E5C2E612EF209F3099D
:100CBC00F20A0319F30A7308F1007208F000080035
:100CCC00F601F11F6A2E6B2E722EF009F109F00A53
:100CDC000319F10AF601F60AF31F752E762E7F2EF4
:100CEC00F209F309F20A0319F30A0130F40074084B
:100CFC00F606F701F801700871040319862E872E89
:100D0C00BE2EF501F50A952E01300310F00DF10DF4
:100D1C00FF3E031D8B2E0130F4007408F507F11F04
:100D2C00982E992E8A2E01300310F70DF80DFF3EE8
:100D3C00031D9A2E71087302031DA62E70087202F1
:100D4C00031CA92EAA2EB12E7008F2027108031CE6
:100D5C00F303F302771401300310F10CF00CFF3E97
:100D6C00031DB22E0130F502031DBD2EBE2E992E91
:100D7C0076080319C22EC32EC82EF709F809F70AF4
:100D8C000319F80A7808F1007708F00008008316B8
:100D9C0003138701FF308312031387008316031399
:100DAC00860183120313BE01BF01013083120313AA
:100DBC00BE070318BF0A0030BF0710303E062730AD
:100DCC0003193F06031DEB2EEC2EEE2EBE01BF01C8
:100DDC003F08C1003E08C0000A30F0000030F100AE
:100DEC004108F3004008F2000A128A110D260A127B
:100DFC008A11710883120313BB007008BA000A3001
:100E0C00F0000030F1003A084002F2003B08031CED
:100E1C003B0A4102F3000A128A1166260A128A1151
:100E2C00710883120313C1007008C0000A30F0006F
:100E3C000030F1004108F3004008F2000A128A1158
:100E4C000D260A128A11710883120313B900700857
:100E5C00B8000A30F0000030F10038084002F2000F
:100E6C003908031C390A4102F3000A128A1166265A
:100E7C000A128A11710883120313C1007008C00092
:100E8C000A30F0000030F1004108F3004008F20095
:100E9C000A128A110D260A128A1171088312031381
:100EAC00B7007008B6000A30F0000030F1003608C8
:100EBC004002F2003708031C370A4102F3000A1201
:100ECC008A1166260A128A11710883120313C10053
:100EDC007008C0000A30F0000030F1004108F30047
:100EEC004008F2000A128A110D260A128A117108A2
:100EFC0083120313B5007008B400BC01BD0183124A
:100F0C0003133B08F1003A08F0000A128A11BC25C1
:100F1C000A128A114130FA00EE30F900F90B942FC5
:100F2C00FA0B942F0000831203133908F1003808D0
:100F3C00F0000A128A11AE250A128A114130FA0009
:100F4C00EE30F900F90BA82FFA0BA82F0000831232
:100F5C0003133708F1003608F0000A128A11D8255D
:100F6C000A128A114130FA00EE30F900F90BBC2F4D
:100F7C00FA0BBC2F0000831203133508F100340860
:100F8C00F0000A128A11CA250A128A114130FA009D
:100F9C00EE30F900F90BD02FFA0BD02F00000130F6
:100FAC0083120313BC070318BD0A0030BD073D08AC
:100FBC00803AFF0080307F02031DE62F19303C027F
:100FCC00031CE92FEA2F852FDB2E0A128A11002829
:100FDC0083133430FD000530FE00F930FF00203063
:100FEC0084000A128A11EA250A128A1183010A1254
:040FFC008A11CD2E5B
:02400E003B3F36
:00000001FF
