:020000040000FA
:060000000A128A11E22F32
:100BE800FF3083120313880008117008F20072079F
:100BF800203E84008313000887000800FF3083121A
:100C08000313880088117008F2007207203E8400E0
:100C18008313000887000800FF308312031388003D
:100C280008107008F2007207203E84008313000841
:100C380087000800FF3083120313880088107008AB
:100C4800F2007207203E8400831300088700080022
:100C58007E088A007F0882000A128A112C260A124E
:100C68008A118000840A04087D0603190034FF0AEB
:100C78000319FE0A302E3F340034063400345B3446
:100C880000344F340034663400346D3400347D341D
:100C98000034073400347F3400346F340034831652
:100CA8000313870188018312031387018801FF302A
:100CB800831603138500831203139E0183160313FF
:100CC8009E010530831203139F001F196C2E6D2E91
:100CD800692E1E08B500831603131E08831203131A
:100CE800B4003508F9003408F8000A128A11002700
:100CF8000A128A11652E0A128A11002870087104D6
:100D08000319872E882EB72EF501F50A962E013085
:100D18000310F00DF10DFF3E031D8C2E0130F40081
:100D28007408F507F11F992E9A2E8B2E71087302FD
:100D3800031DA02E70087202031CA32EA42EAA2E37
:100D48007008F2027108031CF303F3020130031068
:100D5800F10CF00CFF3E031DAB2E0130F502031D14
:100D6800B62EB72E9A2E7308F1007208F00008000C
:100D7800F501F601700871040319C32EC42EFB2E69
:100D8800F701F70AD22E01300310F00DF10DFF3EE6
:100D9800031DC82E0130F4007408F707F11FD52E83
:100DA800D62EC72E01300310F50DF60DFF3E031D9C
:100DB800D72E71087302031DE32E70087202031CFC
:100DC800E62EE72EEE2E7008F2027108031CF303DC
:100DD800F302751401300310F10CF00CFF3E031DF3
:100DE800EF2E0130F702031DFA2EFB2ED62E7608C1
:100DF800F1007508F00008007908FD007808FC008B
:100E08007908FD007808FC000A30F0000030F10095
:100E18007D08F3007C08F2000A128A1182260A1261
:100E28008A11710883120313B7007008B6000A30DC
:100E3800F0000030F10036087C02F2003708031C8D
:100E4800370A7D02F3000A128A11BC260A128A1197
:100E58007108FD007008FC000A30F0000030F10055
:100E68007D08F3007C08F2000A128A1182260A1211
:100E78008A11710883120313B9007008B8000A3088
:100E8800F0000030F10038087C02F2003908031C39
:100E9800390A7D02F3000A128A11BC260A128A1145
:100EA8007108FD007008FC000A30F0000030F10005
:100EB8007D08F3007C08F2000A128A1182260A12C1
:100EC8008A11710883120313BB007008BA000A3034
:100ED800F0000030F1003A087C02F2003B08031CE5
:100EE8003B0A7D02F3000A128A11BC260A128A11F3
:100EF8007108FD007008FC000A30F0000030F100B5
:100F08007D08F3007C08F2000A128A1182260A1270
:100F18008A11710883120313BD007008BC003708DA
:100F2800F1003608F0000A128A1102260A128A1104
:100F38002130FB007630FA00FA0BA02FFB0BA02F14
:100F48000000831203133908F1003808F0000A1270
:100F58008A11F4250A128A112130FB007630FA0032
:100F6800FA0BB42FFB0BB42F0000831203133B08BA
:100F7800F1003A08F0000A128A111E260A128A1194
:100F88002130FB007630FA00FA0BC82FFB0BC82F74
:100F98000000831203133D08F1003C08F0000A1218
:100FA8008A1110260A128A112130FB007630FA00C5
:100FB800FA0BDC2FFB0BDC2F000008008313343006
:100FC800FD000630FE003F30FF00203084000A128A
:100FD8008A1130260A128A11B401B501B601B70187
:100FE800B801B901BA01BB01BC01BD01FC01FD0199
:080FF80083010A128A11532E35
:02400E003B3F36
:00000001FF
