:020000040000FA
:04000000D7EF04F042
:0D060000002043687563206D756E67000073
:10060E00270E106E100E0F6E09C00DF00AC00EF000
:10061E0009500A10D8B416EF03F018EF03F041EFAB
:10062E0003F028EF03F00FC001F010C002F0000E2F
:10063E00046E0A0E036E83EC03F001C00FF002C0CD
:10064E0010F00DC001F00EC002F00FC003F010C08C
:10065E0004F083EC03F002BE3DEF03F0025008E11C
:10066E000104D8A03DEF03F03FEF03F01AEF03F0C3
:10067E0045EF03F0000E106E010E0F6E0DC001F06F
:10068E000EC002F00FC003F010C004F083EC03F0B4
:10069E0001C00BF002C00CF00B50300F98EC04F0C0
:1006AE000FC001F010C002F00BC003F00CC004F03C
:1006BE00C4EC04F001500D5C0D6E02500E580E6E1F
:1006CE000FC001F010C002F0000E046E0A0E036E91
:1006DE0083EC03F001C00FF002C010F010BE82EFE9
:1006EE0003F0105006E10F04D8B080EF03F082EF54
:1006FE0003F045EF03F01200000E066E04BE8CEF01
:10070E0003F08AEF03F092EF03F0036C041ED8B0EF
:10071E00042A010E066E02BE99EF03F097EF03F066
:10072E009FEF03F0016C021ED8B0022A010E061ACA
:10073E00000E086E000E076E03500410D8B4AAEF18
:10074E0003F0ACEF03F0D4EF03F0010E056EB4EF3F
:10075E0003F0D89003360436052A04AEB9EF03F041
:10076E00BBEF03F0B0EF03F0D89007360836035016
:10077E00015C04500258D8A0C7EF03F0C9EF03F094
:10078E00CEEF03F00350015E0450025A0780D8905A
:10079E0004320332052EBBEF03F00650D8B4DAEF65
:1007AE0003F0DCEF03F0E0EF03F0076C081ED8B0A7
:1007BE00082A07C001F008C002F01200000E066EF3
:1007CE00000E056E03500410D8B4F0EF03F0F2EFF4
:1007DE0003F01AEF04F0010E076EFAEF03F0D89053
:1007EE0003360436072A04AEFFEF03F001EF04F0E0
:1007FE00F6EF03F0D890053606360350015C045030
:10080E000258D8A00DEF04F00FEF04F014EF04F02F
:10081E000350015E0450025A0580D8900432033210
:10082E00072E01EF04F005C001F006C002F0120021
:10083E00000E946E000E956E000E826E000E836E8C
:10084E00380EAEEC04F00C0EAEEC04F0010EAEEC75
:10085E0004F0010E056E060E066E53EC04F0C00E8B
:10086E00AEEC04F0000E126EFA0E116E11C001F015
:10087E0012C002F0000E046EBB0E036EE5EC03F028
:10088E0001C011F002C012F011C009F012C00AF03E
:10089E0007EC03F000EF00F0000E0A6E000E096E7A
:1008AE0069EF04F009500524076E0A500620086E01
:1008BE0007C0F6FF08C0F7FF0800F55098EC04F0EB
:1008CE00094A0A2A05C001F006C002F07BEC04F0CA
:1008DE000150095C02500A58D8A078EF04F07AEF64
:1008EE0004F059EF04F0120001C003F002C004F04E
:1008FE0083EF04F0014A022A01C0F6FF02C0F7FF9F
:10090E000800F5500009D8A48FEF04F091EF04F021
:10091E0081EF04F00350015C016E04500258026E28
:10092E001200026E829A828802C083FF828C030EAE
:10093E00016E980EE82EFED7012EFCD7829C080E73
:10094E00016ECA0EE82EFED7012EFCD71200026EE3
:10095E00829A829802C083FF828C030E016E980EDB
:10096E00E82EFED7012EFCD7829C080E016ECA0E11
:10097E00E82EFED7012EFCD7120001500302F3CF52
:10098E0005F0F4CF06F001500402F3500626025093
:10099E000302F350062605C001F006C002F0120055
:0E09AE00000EF86E060EF76E00011FEF04F04B
:020000040020DA
:08000000FFFFFFFFFFFFFFFF00
:020000040030CA
:0E000000FF07191EFF0180FF0FC00FE00F4029
:00000001FF
