:020000040000FA
:04000000C4EF3FF01A
:107F88000001C7EF3FF0250E056E250E016E450E68
:107F9800D2EC3FF0CEEF3FF000EF00F0026E000EA3
:107FA800046E0150D8B4DBEF3FF0DDEF3FF0FEEF99
:107FB8003FF0010E036EE4EF3FF0D8900136032A3C
:107FC80001AEE9EF3FF0EBEF3FF0E1EF3FF0D89083
:107FD80004360150025CD8A0F4EF3FF0F6EF3FF012
:107FE800F9EF3FF00150025E0480D8900132032E71
:087FF800EBEF3FF00450120012
:020000040020DA
:08000000FFFFFFFFFFFFFFFF00
:020000040030CA
:0E000000FF07191EFF0180FF0FC00FE00F4029
:00000001FF
