:020000040000FA
:04000000D3EF3DF00D
:107B0E00C280C294C296C298C29AC282000EC16E40
:107B1E00C08E12003F0006005B004F0066006D0035
:107B2E007D0007007F006F0083688394D890013436
:107B3E00D96E0234DA6E320ED926000EDA22DF50FA
:107B4E00816E120083688396D8900134D96E023408
:107B5E00DA6E320ED926000EDA22DF50816E120056
:107B6E0083688390D8900134D96E0234DA6E320E67
:107B7E00D926000EDA22DF50816E120083688392BE
:107B8E00D8900134D96E0234DA6E320ED926000E38
:107B9E00DA22DF50816E1200220EF66E7B0EF76E29
:107BAE00000EF86E00EE32F010EE14F00900F5CF74
:107BBE00EEFFE550E150FAE100EE1CF0160EEE6A13
:107BCE00E806FDE10001DFEF3EF003500410D8B4EB
:107BDE00F3EF3DF0F5EF3DF019EF3EF0010E056EBF
:107BEE00FDEF3DF0D89003360436052A04AE02EFC1
:107BFE003EF004EF3EF0F9EF3DF00350015C04500F
:107C0E000258D8A00DEF3EF00FEF3EF013EF3EF00E
:107C1E000350015E0450025AD89004320332052EEE
:107C2E0004EF3EF001C001F002C002F01200000E9F
:107C3E00096E000E0A6E000E0B6E000E0C6E01A089
:107C4E002BEF3EF02DEF3EF035EF3EF005500926BE
:107C5E0006500A2207500B2208500C22D8900536E7
:107C6E00063607360836D890043203320232013215
:107C7E000150021003100410D8A448EF3EF04AEF52
:107C8E003EF026EF3EF009C001F00AC002F00BC034
:107C9E0003F00CC004F01200000E066E000E056E0E
:107CAE0003500410D8B45EEF3EF060EF3EF088EF64
:107CBE003EF0010E076E68EF3EF0D89003360436A4
:107CCE00072A04AE6DEF3EF06FEF3EF064EF3EF02C
:107CDE00D890053606360350015C04500258D8A0E1
:107CEE007BEF3EF07DEF3EF082EF3EF00350015E03
:107CFE000450025A0580D89004320332072E6FEFDB
:107D0E003EF005C001F006C002F01200000E156E26
:107D1E00000E166E000E176E000E186E1150121019
:107D2E0013101410D8B49EEF3EF0A0EF3EF0D6EF35
:107D3E003EF0010E196EAAEF3EF0D89011361236B3
:107D4E0013361436192A14AEAFEF3EF0B1EF3EF0F3
:107D5E00A4EF3EF0D8901536163617361836115059
:107D6E000D5C12500E5813500F5814501058D8A0C6
:107D7E00C3EF3EF0C5EF3EF0CEEF3EF011500D5E7C
:107D8E0012500E5A13500F5A1450105A1580D89084
:107D9E001432133212321132192EB1EF3EF015C0D9
:107DAE000DF016C00EF017C00FF018C010F0120034
:107DBE00000E936E000E956E000E816E000E836E99
:107DCE00000E946E000E826E9268000EC46E000E4F
:107DDE00C36E87EC3DF0C282C2B2F8EF3EF0FAEF0E
:107DEE003EF0F3EF3EF0C350C4CF1AF01B6A1AC038
:107DFE001BF01A6A1A12000E1B121AC024F01BC0B6
:107E0E0025F0000E25BEFF0E266E276E24C001F053
:107E1E0025C002F026C003F027C004F0E80E056E60
:107E2E00030E066E000E076E000E086E1EEC3EF080
:107E3E0001C00DF002C00EF003C00FF004C010F030
:107E4E00FF0E116E030E126E000E136E000E146EE8
:107E5E008DEC3EF00DC01CF00EC01DF00FC01EF0DC
:107E6E0010C01FF01CC008F01DC009F043EC3FF01D
:107E7E00F2EF3EF000EF00F008C028F009C029F044
:107E8E0008C028F009C029F028C001F029C002F06E
:107E9E00000E046E0A0E036EECEC3DF001C02AF0EB
:107EAE0002C02BF02A50285C016E2B502958026E0E
:107EBE00000E046E0A0E036E53EC3EF001C028F065
:107ECE0002C029F028C001F029C002F0000E046E95
:107EDE000A0E036EECEC3DF001C02CF002C02DF04A
:107EEE002C50285C016E2D502958026E000E046E27
:107EFE000A0E036E53EC3EF001C028F002C029F0CA
:107F0E0028C001F029C002F0000E046E0A0E036EA6
:107F1E00ECEC3DF001C02EF002C02FF02E50285C8C
:107F2E00016E2F502958026E000E046E0A0E036E5B
:107F3E0053EC3EF001C028F002C029F028C001F039
:107F4E0029C002F0000E046E0A0E036EECEC3DF03A
:107F5E0001C030F002C031F0000E0C6E000E0B6E40
:107F6E002AC001F02BC002F0A9EC3DF0210E0A6EE2
:107F7E00760EE82EFED70A2EFCD700D02CC001F0CC
:107F8E002DC002F09BEC3DF0210E0A6E760EE82E0F
:107F9E00FED70A2EFCD700D02EC001F02FC002F063
:107FAE00C5EC3DF0210E0A6E760EE82EFED70A2E97
:107FBE00FCD700D030C001F031C002F0B7EC3DF07C
:107FCE00210E0A6E760EE82EFED70A2EFCD700D0B2
:107FDE000B4A0C2A0CBEFDEF3FF00C5009E1320E9D
:107FEE000B5CD8A0FDEF3FF0FFEF3FF0B7EF3FF097
:027FFE0012006F
:020000040020DA
:08000000FFFFFFFFFFFFFFFF00
:020000040030CA
:0E000000FF071F1EFF0180FF0FC00FE00F4023
:00000001FF
