:020000040000FA
:04000000A7EF3EF038
:107CB800C280C294C296C298C29AC282000EC16E95
:107CC80012003F0006005B004F0066006D007D005B
:107CD80007007F006F0083688394D8902134D96EA1
:107CE8002234DA6E010ED926000EDA22DF50826EB7
:107CF800120083688396D8902134D96E2234DA6EC4
:107D0800010ED926000EDA22DF50826E1200836837
:107D18008390D8902134D96E2234DA6E010ED92698
:107D2800000EDA22DF50826E120083688392D890A8
:107D38002134D96E2234DA6E010ED926000EDA22E9
:107D4800DF50826E1200CA0EF66E7C0EF76E000EC1
:107D5800F86E00EE01F010EE14F00900F5CFEEFF1A
:107D6800E550E150FAE100EE15F00C0EEE6AE80677
:107D7800FDE10001C0EF3EF0000E946E000E956E1E
:107D8800000E826E000E836E9268000EC46E000EA6
:107D9800C36E5CEC3EF0C2B2D4EF3EF0D6EF3EF0DC
:107DA800CFEF3EF0C350C4CF2BF02C6A2BC02CF081
:107DB8002B6A2B10156E2C50166E15C028F016C0A5
:107DC80029F057EC3FF0CDEF3EF000EF00F02350E4
:107DD8002410D8B4F2EF3EF0F4EF3EF018EF3FF085
:107DE800010E256EFCEF3EF0D89023362436252A66
:107DF80024AE01EF3FF003EF3FF0F8EF3EF02350E1
:107E0800215C24502258D8A00CEF3FF00EEF3FF031
:107E180012EF3FF02350215E2450225AD89024328A
:107E28002332252E03EF3FF021C021F022C022F09B
:107E38001200000E266E000E256E23502410D8B4B2
:107E480028EF3FF02AEF3FF052EF3FF0010E276E88
:107E580032EF3FF0D89023362436272A24AE37EF66
:107E68003FF039EF3FF02EEF3FF0D8902536263619
:107E78002350215C24502258D8A045EF3FF047EF0B
:107E88003FF04CEF3FF02350215E2450225A2580CA
:107E9800D89024322332272E39EF3FF025C021F025
:107EA80026C022F0120028C017F029C018F028C0F8
:107EB80017F029C018F017C021F018C022F0000EE2
:107EC800246E0A0E236EEBEC3EF021C019F022C09E
:107ED8001AF01950175C216E1A501858226E000EAD
:107EE800246E0A0E236E1DEC3FF021C017F022C04D
:107EF80018F017C021F018C022F0000E246E0A0EE8
:107F0800236EEBEC3EF021C01BF022C01CF01B508E
:107F1800175C216E1C501858226E000E246E0A0E33
:107F2800236E1DEC3FF021C017F022C018F017C0D7
:107F380021F018C022F0000E246E0A0E236EEBEC1E
:107F48003EF021C01DF022C01EF01D50175C216EAE
:107F58001E501858226E000E246E0A0E236E1DEC59
:107F68003FF021C017F022C018F017C021F018C048
:107F780022F0000E246E0A0E236EEBEC3EF021C0B8
:107F88001FF022C020F019C021F01AC022F07DECA9
:107F98003EF0210E2A6E760EE82EFED72A2EFCD74A
:107FA80000D01BC021F01CC022F06FEC3EF0210E67
:107FB8002A6E760EE82EFED72A2EFCD700D01DC0DA
:107FC80021F01EC022F099EC3EF0210E2A6E760EAA
:107FD800E82EFED72A2EFCD700D01FC021F020C0E3
:107FE80022F08BEC3EF0210E2A6E760EE82EFED79C
:087FF8002A2EFCD700D0120074
:020000040020DA
:08000000FFFFFFFFFFFFFFFF00
:020000040030CA
:0E000000FF071F1EFF0180FF0FC00FE00F4023
:00000001FF
