:020000040000FA
:0400000040EF3EF09F
:107BD6003F0006005B004F0066006D007D00070059
:107BE6007F006F0082688294D8900134D96E023487
:107BF600DA6E180ED926000EDA22DF50816E1200D8
:107C060082688296D8900134D96E0234DA6E180EE4
:107C1600D926000EDA22DF50816E12008268829029
:107C2600D8900134D96E0234DA6E180ED926000EB9
:107C3600DA22DF50816E120082688292D890013477
:107C4600D96E0234DA6E180ED926000EDA22DF500B
:107C5600816E120001500302F3CF05F0F4CF06F057
:107C660001500402F350062602500302F350062682
:107C760005C001F006C002F01200D60EF66E7B0EAD
:107C8600F76E000EF86E00EE18F010EE14F0090014
:107C9600F5CFEEFFE550E150FAE100010DEF3FF0C0
:107CA600000E066E02BE5CEF3EF05AEF3EF062EF4B
:107CB6003EF0016C021ED8B0022A010E066E04BE0A
:107CC60069EF3EF067EF3EF06DEF3EF0036C041E89
:107CD600D8B0042A03500410D8B474EF3EF076EFFF
:107CE6003EF09AEF3EF0010E056E7EEF3EF0D89024
:107CF60003360436052A04AE83EF3EF085EF3EF0E8
:107D06007AEF3EF00350015C04500258D8A08EEF83
:107D16003EF090EF3EF094EF3EF00350015E0450CB
:107D2600025AD89004320332052E85EF3EF00650F3
:107D3600D8B4A0EF3EF0A2EF3EF0A6EF3EF0016C05
:107D4600021ED8B0022A01C001F002C002F01200E1
:107D5600000E066E04BEB4EF3EF0B2EF3EF0BAEF90
:107D66003EF0036C041ED8B0042A010E066E02BE55
:107D7600C1EF3EF0BFEF3EF0C7EF3EF0016C021ED2
:107D8600D8B0022A010E061A000E086E000E076E03
:107D960003500410D8B4D2EF3EF0D4EF3EF0FCEF1F
:107DA6003EF0010E056EDCEF3EF0D8900336043649
:107DB600052A04AEE1EF3EF0E3EF3EF0D8EF3EF0E9
:107DC600D890073608360350015C04500258D8A0F4
:107DD600EFEF3EF0F1EF3EF0F6EF3EF00350015EBE
:107DE6000450025A0780D89004320332052EE3EF7E
:107DF6003EF00650D8B402EF3FF004EF3FF008EF34
:107E06003FF0076C081ED8B0082A07C001F008C06A
:107E160002F01200000E946E8268000E936E000E41
:107E2600156E000E146E144A152A14C016F015C0ED
:107E360017F016C001F017C002F0000E046E0A0E0D
:107E4600036E53EC3EF001C012F002C013F0125064
:107E5600165C016E13501758026E000E046E0A0E61
:107E6600036EABEC3EF001C016F002C017F016C070
:107E760001F017C002F0000E046E0A0E036E53ECFA
:107E86003EF001C010F002C011F01050165C016EF9
:107E960011501758026E000E046E0A0E036EABECFC
:107EA6003EF001C016F002C017F016C001F017C070
:107EB60002F0000E046E0A0E036E53EC3EF001C093
:107EC6000CF002C00DF00C50165C016E0D501758E8
:107ED600026E000E046E0A0E036EABEC3EF001C09D
:107EE60016F002C017F016C001F017C002F0000E1F
:107EF600046E0A0E036E53EC3EF001C00AF002C097
:107F06000BF0000E0F6E000E0E6E12C001F013C0C5
:107F160002F003EC3EF0410E096EEE0EE82EFED79F
:107F2600092EFCD700D010C001F011C002F0F5EC0C
:107F36003DF0410E096EEE0EE82EFED7092EFCD757
:107F460000D00CC001F00DC002F01FEC3EF0410E57
:107F5600096EEE0EE82EFED7092EFCD700D00AC019
:107F660001F00BC002F011EC3EF0410E096EEE0E70
:107F7600E82EFED7092EFCD700D00E4A0F2A0FBED8
:107F8600CEEF3FF00F5009E1190E0E5CD8A0CEEFF0
:107F96003FF0D0EF3FF088EF3FF010C001F011C086
:107FA60002F0000E046E0A0E036E2DEC3EF0125027
:107FB6000126135002223B0E01180210D8A4E6EF48
:107FC6003FF0E8EF3FF0ECEF3FF0280E1426000EEE
:107FD60015226F0E141807E1170E1518D8A4F6EF20
:107FE6003FF0F8EF3FF016EF3FF0000E156E000E73
:0A7FF600146E16EF3FF000EF00F0EC
:020000040020DA
:08000000FFFFFFFFFFFFFFFF00
:020000040030CA
:0E000000FF02191EFF0184FF0FC00FE00F402A
:00000001FF
