:020000040000FA
:0400000007EF00F016
:10000800028209ED00F033EF00F00600F2A20FEFD4
:1000180000F011EF00F024EF00F00150D8A417EF22
:1000280000F019EF00F01FEF00F0010E016EF292E0
:10003800836824EF00F0000E016EF292000E836ECA
:1000480002921100010E936E000E956E000E836EE3
:10005800F18CF288F28E2FEF00F007EF00F0016AC2
:0A00680002900292000126EF00F062
:020000040020DA
:08000000FFFFFFFFFFFFFFFF00
:020000040030CA
:0E000000FF07191EFF0180FF0FC00FE00F4029
:00000001FF
