:020000040000FA
:0400000007EF00F016
:0A0008006782E3ED0AF08CEF13F0BD
:1006000000436169206461743A20353025004361FC
:1006100069206461743A20333325004361692064A2
:1006200061743A2036362500436169206461743A6A
:10063000203025002072706D00000001B851800B41
:10064000C16FB851B825C76FB7AF29EF03F02BEFD3
:1006500003F02CEF03F0C781C751D8B432EF03F099
:1006600034EF03F047EF03F0C729D8A43AEF03F0C3
:100670003CEF03F044EF03F0000EB56F000EB66FD1
:10068000000EB76F000EB86FB78F4FEF03F0000E7C
:10069000B56F000EB66F000EB76F000EB86FBC518D
:1006A000800BC11BBC51BC25C66FBBAF5AEF03F01A
:1006B0005CEF03F05DEF03F0C681C651D8B463EF81
:1006C00003F065EF03F078EF03F0C629D8A46BEFD1
:1006D00003F06DEF03F075EF03F0000EB96F000E3D
:1006E000BA6F000EBB6F000EBC6FBB8F80EF03F0C4
:1006F000000EB96F000EBA6F000EBB6F000EBC6F1C
:10070000C651D8B486EF03F088EF03F090EF03F002
:10071000C751D8A48EEF03F090EF03F09AEF03F0E7
:10072000000EB56F000EB66F000EB76F000EB86FFB
:1007300032EF05F0BB51B503F3CFCCF0F4CFCDF0E1
:10074000CC51C26FC36BC46BC56BCD51C86FC96B45
:10075000CA6BCB6BBA51B603F3CFCCF0F4CFCDF06C
:10076000CC51C227000EC323C423C523CD51C827B3
:10077000000EC923CA23CB23B951B703F3CFCCF062
:10078000F4CFCDF0CC51C227000EC323C423C52320
:10079000CD51C827000EC923CA23CB23C4C0C5F03E
:1007A000C3C0C4F0C2C0C3F0C26BB951B603F3CF2B
:1007B000CCF0F4CFCDF0CC51C227CD51C323000EE5
:1007C000C423000EC523BA51B503F3CFCCF0F4CF48
:1007D000CDF0CC51C227CD51C323000EC423000E4F
:1007E000C523C4C0C5F0C3C0C4F0C2C0C3F0C26B4F
:1007F000B951B503F3CFCCF0F4CFCDF0CC51C22733
:10080000CD51C323000EC423000EC523BB51B60334
:10081000F3CFCCF0F4CFCDF0CC51C827CD51C923C4
:10082000000ECA23000ECB23BA51B703F3CFCCF08E
:10083000F4CFCDF0CC51C827CD51C923000ECA2327
:10084000000ECB23BB51B703F3CFCCF0F4CFCDF0E8
:10085000CC51BD6FCD51BE6FBF6BC06BBFC0C0F080
:10086000BEC0BFF0BDC0BEF0BD6BBD51C827BE51FC
:10087000C923BF51CA23C051CB23C2C0BDF0C3C0DE
:10088000BEF0C4C0BFF0C5C0C0F0190E4DEF04F0FB
:10089000D890C033BF33BE33BD33E82E48EF04F0E9
:1008A000BD51C827BE51C923BF51CA23C051CB2354
:1008B000C4C0C5F0C3C0C4F0C2C0C3F0C26BC6514F
:1008C000C7C0BDF0BE6BBD27000EBE23820EBD2586
:1008D000CC6FFF0EBE21CD6F83EF04F0D890C837E8
:1008E000C937CA37CB37C5AF78EF04F07AEF04F0D9
:1008F0007BEF04F0C881D890C237C337C437C537FF
:10090000CC07D8A0CD07CAAF88EF04F08AEF04F077
:100910006EEF04F0000EC66FC5AF91EF04F093EFD9
:1009200004F0B7EF04F0FF0EC215BD6FFF0EC31544
:10093000BE6FFF0EC415BF6F7F0EC515C06FBD51D2
:10094000BE11BF11C011D8B4A8EF04F0AAEF04F093
:10095000AEEF04F0010EC66FB7EF04F0C8A1B3EF1D
:1009600004F0B5EF04F0B7EF04F0AAEF04F0C651BD
:10097000D8B4BDEF04F0BFEF04F0E3EF04F0010ED4
:10098000C827000EC923CA23CB23CBA1CAEF04F08A
:10099000CCEF04F0E3EF04F0C8C0BDF0C9C0BEF076
:1009A000CAC0BFF0CBC0C0F0C035C033BF33BE3308
:1009B000BD33BDC0C8F0BEC0C9F0BFC0CAF0C0C022
:1009C000CBF0CC4BCD2BCDBFEEEF04F0CD5108E1F9
:1009D000CC29D8A0EEEF04F0F0EF04F0FAEF04F029
:1009E000000EC86F000EC96F800ECA6F7F0ECB6FEE
:1009F00028EF05F0CDBF07EF05F0CD5106E1CC059E
:100A0000D8B005EF05F007EF05F013EF05F0000E85
:100A1000C86F000EC96F000ECA6F000ECB6F000EBC
:100A2000C16F28EF05F0CCC0C7F0FF0EC817FF0E4E
:100A3000C9177F0ECA17000ECB17C7A122EF05F00A
:100A400024EF05F025EF05F0CA8FD890C731CB6FA2
:100A5000C151CB13C8C0B5F0C9C0B6F0CAC0B7F019
:100A6000CBC0B8F012003950800B426E3950392497
:100A7000486E38AE3EEF05F040EF05F041EF05F06F
:100A800048804850D8B447EF05F049EF05F05CEFD7
:100A900005F04828D8A44FEF05F051EF05F059EFC5
:100AA00005F0000E366E000E376E000E386E000E2A
:100AB000396E388E64EF05F0000E366E000E376E1C
:100AC000000E386E000E396E3D50800B421A3D50BC
:100AD0003D24476E3CAE6FEF05F071EF05F072EF0D
:100AE00005F047804750D8B478EF05F07AEF05F06D
:100AF0008DEF05F04728D8A480EF05F082EF05F0D0
:100B00008AEF05F0000E3A6E000E3B6E000E3C6E52
:100B1000000E3D6E3C8E95EF05F0000E3A6E000E15
:100B20003B6E000E3C6E000E3D6E4750D8B49BEFFE
:100B300005F09DEF05F0A5EF05F04850D8A4A3EF10
:100B400005F0A5EF05F0AFEF05F0000E366E000ED4
:100B5000376E000E386E000E396E47EF07F03C50CE
:100B60003602F3CF4DF0F4CF4EF04D50436E446A51
:100B7000456A466A4E50496E4A6A4B6A4C6A3B5017
:100B80003702F3CF4DF0F4CF4EF04D504326000E18
:100B90004422452246224E504926000E4A224B222C
:100BA0004C223A503802F3CF4DF0F4CF4EF04D5076
:100BB0004326000E4422452246224E504926000E6E
:100BC0004A224B224C2245C046F044C045F043C067
:100BD00044F0436A3A503702F3CF4DF0F4CF4EF071
:100BE0004D5043264E504422000E4522000E462210
:100BF0003B503602F3CF4DF0F4CF4EF04D5043262C
:100C00004E504422000E4522000E462245C046F0BA
:100C100044C045F043C044F0436A3A503602F3CF33
:100C20004DF0F4CF4EF04D5043264E504422000E6E
:100C30004522000E46223C503702F3CF4DF0F4CF50
:100C40004EF04D5049264E504A22000E4B22000EC7
:100C50004C223B503802F3CF4DF0F4CF4EF04D50C4
:100C600049264E504A22000E4B22000E4C223C5088
:100C70003802F3CF4DF0F4CF4EF04D503E6E4E5053
:100C80003F6E406A416A40C041F03FC040F03EC004
:100C90003FF03E6A3E5049263F504A2240504B2288
:100CA00041504C2243C03EF044C03FF045C040F0AC
:100CB00046C041F0190E62EF06F0D8904132403242
:100CC0003F323E32E82E5DEF06F03E5049263F505F
:100CD0004A2240504B2241504C2245C046F044C06D
:100CE00045F043C044F0436A475048C03EF03F6A75
:100CF0003E26000E3F22820E3E244D6EFF0E3F2008
:100D00004E6E98EF06F0D89049364A364B364C3640
:100D100046AE8DEF06F08FEF06F090EF06F04980BB
:100D2000D89043364436453646364D06D8A04E0652
:100D30004BAE9DEF06F09FEF06F083EF06F0000E3E
:100D4000476E46AEA6EF06F0A8EF06F0CCEF06F031
:100D5000FF0E43143E6EFF0E44143F6EFF0E45140B
:100D6000406E7F0E4614416E3E503F1040104110C1
:100D7000D8B4BDEF06F0BFEF06F0C3EF06F0010EEA
:100D8000476ECCEF06F049A0C8EF06F0CAEF06F0B8
:100D9000CCEF06F0BFEF06F04750D8B4D2EF06F024
:100DA000D4EF06F0F8EF06F0010E4926000E4A22B5
:100DB0004B224C224CA0DFEF06F0E1EF06F0F8EFFB
:100DC00006F049C03EF04AC03FF04BC040F04CC076
:100DD00041F04134413240323F323E323EC049F070
:100DE0003FC04AF040C04BF041C04CF04D4A4E2A43
:100DF0004EBE03EF07F04E5008E14D28D8A003EF98
:100E000007F005EF07F00FEF07F0000E496E000E38
:100E10004A6E800E4B6E7F0E4C6E3DEF07F04EBE5D
:100E20001CEF07F04E5006E14D04D8B01AEF07F062
:100E30001CEF07F028EF07F0000E496E000E4A6E17
:100E4000000E4B6E000E4C6E000E426E3DEF07F032
:100E50004DC048F0FF0E4916FF0E4A167F0E4B1686
:100E6000000E4C1648A037EF07F039EF07F03AEFC5
:100E700007F04B8ED89048304C6E42504C1249C00F
:100E800036F04AC037F04BC038F04CC039F0120091
:100E900000019F51800BAC6F9F519F25B36F9EAF98
:100EA00054EF07F056EF07F057EF07F0B381B35157
:100EB000D8B45DEF07F05FEF07F074EF07F0B329E8
:100EC000D8A465EF07F067EF07F06FEF07F0000EAB
:100ED0009C6F000E9D6F000E9E6F000E9F6F9E8F89
:100EE000000E9F6F7CEF07F0000E9C6F000E9D6F51
:100EF000000E9E6F000E9F6FA351800BAC1BA35181
:100F0000A325B46FA2AF87EF07F089EF07F08AEF50
:100F100007F0B481B451D8B490EF07F092EF07F026
:100F2000A7EF07F0B429D8A498EF07F09AEF07F0DD
:100F3000A2EF07F0000EA06F000EA16F000EA26FCF
:100F4000000EA36FA28F000EA36FAFEF07F0000E8D
:100F5000A06F000EA16F000EA26F000EA36FA05134
:100F6000A111A211A311D8A4B8EF07F0BAEF07F0AE
:100F7000D2EF07F0000E9C6F000E9D6F000E9E6F6B
:100F8000000E9F6F800E9E137F0E9F13AC519F1318
:100F90009CC09CF09DC09DF09EC09EF09FC09FF0A5
:100FA00015EF09F0B351D8A4D8EF07F0DAEF07F046
:100FB000E4EF07F0000E9C6F000E9D6F000E9E6F19
:100FC000000E9F6F15EF09F0B451B3C0A4F0A56BEC
:100FD000A45F000EA55B7F0EA425AD6F000EA521BA
:100FE000AE6F9CC0A8F09DC0A9F09EC0AAF09FC0A3
:100FF000ABF0000E9C6F000E9D6F000E9E6F000EFA
:101000009F6F000EAF6F000EB06F000EB16F000E3D
:10101000B26F000EB46F45EF08F0B451D8B413EFBF
:1010200008F015EF08F02CEF08F0D890A837A93792
:10103000AA37AB37D8909C379D379E379F37B2AFD2
:1010400024EF08F026EF08F027EF08F09C81D890F5
:10105000AF37B037B137B237A051A85DA151A95908
:10106000A251AA59A351AB59D8A039EF08F03BEFD0
:1010700008F044EF08F0B28DA051A85FA151A95B20
:10108000A251AA5BA351AB5BB42B190EB4654BEF15
:1010900008F04DEF08F00DEF08F0A851A911AA11C2
:1010A000AB11D8B456EF08F058EF08F070EF08F025
:1010B000AF8170EF08F0D8909C379D379E379F37EF
:1010C000B2AF65EF08F067EF08F068EF08F09C81B9
:1010D000D890AF37B037B137B237AD07D8A0AE0729
:1010E0009EAF75EF08F077EF08F05BEF08F0000EA9
:1010F000B46FB2AF7EEF08F080EF08F0A4EF08F015
:10110000FF0EAF15A46FFF0EB015A56FFF0EB11542
:10111000A66F7F0EB215A76FA451A511A611A71136
:10112000D8B495EF08F097EF08F09BEF08F0010EA8
:10113000B46FA4EF08F09CA1A0EF08F0A2EF08F0B4
:10114000A4EF08F097EF08F0B451D8B4AAEF08F074
:10115000ACEF08F0D0EF08F0010E9C27000E9D23A5
:101160009E239F239FA1B7EF08F0B9EF08F0D0EFBF
:1011700008F09CC0A4F09DC0A5F09EC0A6F09FC042
:10118000A7F0A735A733A633A533A433A4C09CF09A
:10119000A5C09DF0A6C09EF0A7C09FF0AD4BAE2BA2
:1011A000AEBFDBEF08F0AE5108E1AD29D8A0DBEF10
:1011B00008F0DDEF08F0E8EF08F0000EAE6FAD6963
:1011C000000E9C6F000E9D6F000E9E6F000E9F6FB5
:1011D000AEBFF5EF08F0AE5106E1AD05D8B0F3EFC4
:1011E00008F0F5EF08F003EF09F0000EAE6F000E07
:1011F000AD6F000E9C6F000E9D6F000E9E6F000E77
:101200009F6F000EAC6FADC0B3F0B3A10AEF09F051
:101210000CEF09F00FEF09F09E8F10EF09F09E9F81
:10122000D890B3319F6FC6EF07F012002050800BAB
:101230002D6E20502024346E1FAE21EF09F023EFD5
:1012400009F024EF09F034803450D8B42AEF09F0C3
:101250002CEF09F041EF09F03428D8A432EF09F05F
:1012600034EF09F03CEF09F0000E1D6E000E1E6E0B
:10127000000E1F6E000E206E1F8E000E206E49EFB6
:1012800009F0000E1D6E000E1E6E000E1F6E000E89
:10129000206E2450800B2D1A24502424356E23AE4A
:1012A00054EF09F056EF09F057EF09F0358035504B
:1012B000D8B45DEF09F05FEF09F074EF09F035285D
:1012C000D8A465EF09F067EF09F06FEF09F0000EA1
:1012D000216E000E226E000E236E000E246E238EF1
:1012E000000E246E7CEF09F0000E216E000E226EBF
:1012F000000E236E000E246E2150221023102410A5
:10130000D8A485EF09F087EF09F09FEF09F0000EF0
:101310001D6E000E1E6E000E1F6E000E206E800EE3
:101320001F127F0E20122D5020121DC01DF01EC056
:101330001EF01FC01FF020C020F0E2EF0AF0345072
:10134000D8A4A5EF09F0A7EF09F0B1EF09F0000E5E
:101350001D6E000E1E6E000E1F6E000E206EE2EF60
:101360000AF0355034C025F0266A255E000E265A54
:101370007F0E25242E6E000E26202F6E1DC029F014
:101380001EC02AF01FC02BF020C02CF0000E1D6ED6
:10139000000E1E6E000E1F6E000E206E000E306ED0
:1013A000000E316E000E326E000E336E000E356E82
:1013B00012EF0AF03550D8B4E0EF09F0E2EF09F08F
:1013C000F9EF09F0D89029362A362B362C36D890EA
:1013D0001D361E361F36203633AEF1EF09F0F3EF1F
:1013E00009F0F4EF09F01D80D890303631363236EE
:1013F00033362150295C22502A5823502B58245030
:101400002C58D8A006EF0AF008EF0AF011EF0AF006
:10141000338C2150295E22502A5A23502B5A2450B3
:101420002C5A352A190E356418EF0AF01AEF0AF013
:10143000DAEF09F029502A102B102C10D8B423EF22
:101440000AF025EF0AF03DEF0AF030803DEF0AF098
:10145000D8901D361E361F36203633AE32EF0AF0D6
:1014600034EF0AF035EF0AF01D80D890303631366F
:10147000323633362E06D8A02F061FAE42EF0AF0C2
:1014800044EF0AF028EF0AF0000E356E33AE4BEF52
:101490000AF04DEF0AF071EF0AF0FF0E3014256EDE
:1014A000FF0E3114266EFF0E3214276E7F0E33149A
:1014B000286E2550261027102810D8B462EF0AF0A5
:1014C00064EF0AF068EF0AF0010E356E71EF0AF072
:1014D0001DA06DEF0AF06FEF0AF071EF0AF064EFF4
:1014E0000AF03550D8B477EF0AF079EF0AF09DEFA3
:1014F0000AF0010E1D26000E1E221F22202220A00F
:1015000084EF0AF086EF0AF09DEF0AF01DC025F087
:101510001EC026F01FC027F020C028F02834283233
:1015200027322632253225C01DF026C01EF027C0E6
:101530001FF028C020F02E4A2F2A2FBEA8EF0AF055
:101540002F5008E12E28D8A0A8EF0AF0AAEF0AF041
:10155000B5EF0AF0000E2F6E2E68000E1D6E000E05
:101560001E6E000E1F6E000E206E2FBEC2EF0AF020
:101570002F5006E12E04D8B0C0EF0AF0C2EF0AF0F7
:10158000D0EF0AF0000E2F6E000E2E6E000E1D6EB4
:10159000000E1E6E000E1F6E000E206E000E2D6ED1
:1015A0002EC034F034A0D7EF0AF0D9EF0AF0DCEF08
:1015B0000AF01F8EDDEF0AF01F9ED8903430206EA7
:1015C00093EF09F012000600F3CF5FF0F4CF60F064
:1015D000F6CF61F0F7CF62F0F8CF63F0F5CF64F0AB
:1015E000F2A0F5EF0AF0F7EF0AF080EF0BF081B808
:1015F000FCEF0AF0FEEF0AF01DEF0BF065506610ED
:10160000D8A405EF0BF007EF0BF013EF0BF0000E73
:10161000666E010E656E010E5A6E520E596E13EC17
:101620000EF01DEF0BF0000E666E000E656E000EE4
:101630005A6E000E596E13EC0EF081BA22EF0BF0C9
:1016400024EF0BF04DEF0BF065046610D8A42BEFE0
:101650000BF02DEF0BF039EF0BF0000E666E020E63
:10166000656E020E5A6E000E596E13EC0EF04DEFC1
:101670000BF0020E65186610D8A441EF0BF043EF93
:101680000BF04DEF0BF0000E666E030E656E020E52
:101690005A6EA30E596E13EC0EF081BC52EF0BF094
:1016A00054EF0BF080EF0BF0030E65186610D8A412
:1016B0005CEF0BF05EEF0BF06AEF0BF0000E666E66
:1016C000020E656E020E5A6E000E596E13EC0EF08D
:1016D00080EF0BF0020E65186610D8A472EF0BF0C5
:1016E00074EF0BF080EF0BF0000E666E010E656E6E
:1016F000010E5A6E520E596E13EC0EF080EF0BF085
:10170000010E61EC13F065506610D8A48AEF0BF05F
:101710008CEF0BF092EF0BF0280E056E060E066EA6
:1017200099EC12F065046610D8A499EF0BF09BEFCA
:101730000BF0A1EF0BF00E0E056E060E066E99EC87
:1017400012F0020E65186610D8A4A9EF0BF0ABEFEB
:101750000BF0B1EF0BF0010E056E060E066E99EC64
:1017600012F0030E65186610D8A4B9EF0BF0BBEFAA
:101770000BF0C1EF0BF01B0E056E060E066E99EC1A
:1017800012F0F29064C0F5FF63C0F8FF62C0F7FF8B
:1017900061C0F6FF60C0F4FF5FC0F3FF6792110005
:1017A0000001966F00019651D8B4D9EF0BF0DBEF32
:1017B0000BF0FDEF0BF091BFE2EF0BF0E0EF0BF061
:1017C000FDEF0BF08EC092F08FC093F090C094F0BC
:1017D00091C095F0921F931F941F951F922B000E9E
:1017E00093239423952392C098F093C099F094C0CA
:1017F0009AF095C09BF005EF0CF08EC098F08FC06A
:1018000099F090C09AF091C09BF08E518F11901179
:101810009111D8A40EEF0CF010EF0CF01AEF0CF0B1
:10182000000E8E6F000E8F6F000E906F000E916F86
:10183000ABEF0CF0960E976F24EF0CF0972BD8902F
:101840009B339A3399339833000E9815926F000E9C
:101850009915936F000E9A15946FFE0E9B15956F58
:101860009251931194119511D8A439EF0CF03BEFDC
:101870000CF01EEF0CF049EF0CF0972B010E98279F
:10188000000E99239A239B23D8909B339A33993344
:101890009833000E9815926F000E9915936F000EF5
:1018A0009A15946FFF0E9B15956F92519311941199
:1018B0009511D8A45EEF0CF060EF0CF03DEF0CF04A
:1018C00068EF0CF09707D890983799379A379B377D
:1018D0009ABF6DEF0CF06FEF0CF077EF0CF0020E8B
:1018E000976175EF0CF077EF0CF062EF0CF097B1A9
:1018F0007CEF0CF07EEF0CF07FEF0CF09A9FD8900D
:10190000973397C092F0936B946B956B92C095F060
:10191000946B936B926B92519813935199139451CA
:101920009A1395519B139651D8B499EF0CF09BEFF5
:101930000CF0A3EF0CF091BFA2EF0CF0A0EF0CF0B5
:10194000A3EF0CF09B8F98C08EF099C08FF09AC0D7
:1019500090F09BC091F01200176E1750D8B4B3EFFF
:101960000CF0B5EF0CF0D7EF0CF012BEBCEF0CF0A2
:10197000BAEF0CF0D7EF0CF00FC013F010C014F05A
:1019800011C015F012C016F0131E141E151E161EDF
:10199000132A000E14221522162213C019F014C0A7
:1019A0001AF015C01BF016C01CF0DFEF0CF00FC0D2
:1019B00019F010C01AF011C01BF012C01CF00F502B
:1019C000101011101210D8A4E8EF0CF0EAEF0CF090
:1019D000F4EF0CF0000E0F6E000E106E000E116E84
:1019E000000E126E85EF0DF0960E186EFEEF0CF0E5
:1019F000182AD8901C321B321A321932000E1914D0
:101A0000136E000E1A14146E000E1B14156EFE0ECB
:101A10001C14166E1350141015101610D8A413EFC2
:101A20000DF015EF0DF0F8EF0CF023EF0DF0182A84
:101A3000010E1926000E1A221B221C22D8901C32DD
:101A40001B321A321932000E1914136E000E1A14BA
:101A5000146E000E1B14156EFF0E1C14166E135020
:101A6000141015101610D8A438EF0DF03AEF0DF041
:101A700017EF0DF042EF0DF01806D89019361A3610
:101A80001B361C361BBE47EF0DF049EF0DF051EF32
:101A90000DF0020E18604FEF0DF051EF0DF03CEF1E
:101AA0000DF018B056EF0DF058EF0DF059EF0DF0A6
:101AB0001B9ED890183218C013F0146A156A166A63
:101AC00013C016F0156A146A136A135019121450D1
:101AD0001A1215501B1216501C121750D8B473EF5F
:101AE0000DF075EF0DF07DEF0DF012BE7CEF0DF0F7
:101AF0007AEF0DF07DEF0DF01C8E19C00FF01AC0BB
:101B000010F01BC011F01CC012F01200040E0001F6
:101B1000D95DD8B08EEF0DF090EF0DF012EF0EF012
:101B2000E4C0DAF0E5C0DBF0E6C0DCF0E7C0DDF0F1
:101B3000020ED890DA37DB37DC37DD37E82E99EF45
:101B40000DF0DAC084F0DBC085F0DCC086F0DDC0CB
:101B500087F0000E806F120E816F7A0E826F000E7A
:101B6000836F9CEC0EF080C08EF081C08FF082C03D
:101B700090F083C091F0010ED0EC0BF08EC0B9F064
:101B80008FC0BAF090C0BBF091C0BCF0000E000155
:101B9000A06FC00EA16F7F0EA26F440EA36FD8C0BE
:101BA0008EF0D9C08FF0906B916B000ED0EC0BF0E3
:101BB0008EC09CF08FC09DF090C09EF091C09FF0B1
:101BC00048EC07F09CC0B5F09DC0B6F09EC0B7F0E1
:101BD0009FC0B8F01DEC03F0B5C0CEF0B6C0CFF09A
:101BE000B7C0D0F0B8C0D1F0A9EC0FF0CEC0D8F09B
:101BF000CFC0D9F0BD9A0001D8B101EF0EF004EFCB
:101C00000EF0BD8805EF0EF0BD98D8C0DAF0D9C04F
:101C1000DBF00001D890DB33DA33D890DB33DA33F2
:101C2000DA51BE6E1200040E5A5CD8B01AEF0EF0F4
:101C30001CEF0EF09BEF0EF0E4C05BF0E5C05CF033
:101C4000E6C05DF0E7C05EF0020ED8905B365C3611
:101C50005D365E36E82E25EF0EF05BC005F05CC009
:101C600006F05DC007F05EC008F0000E016E120EB7
:101C7000026E7A0E036E000E046E23EC0FF001C0AC
:101C80000FF002C010F003C011F004C012F0010EFA
:101C9000ACEC0CF00FC03AF010C03BF011C03CF0BF
:101CA00012C03DF0000E216EC00E226E7F0E236E1C
:101CB000440E246E59C00FF05AC010F0116A126A17
:101CC000000EACEC0CF00FC01DF010C01EF011C0E7
:101CD0001FF012C020F016EC09F01DC036F01EC037
:101CE00037F01FC038F020C039F033EC05F036C0B3
:101CF0004FF037C050F038C051F039C052F02DECE1
:101D000010F04FC059F050C05AF0BD9A59B08BEF47
:101D10000EF08EEF0EF0BD888FEF0EF0BD9859C01B
:101D20005BF05AC05CF0D8905C325B32D8905C3289
:101D30005B325B50BE6E1200000E0001896F87BFE0
:101D4000A6EF0EF0A4EF0EF0B0EF0EF0871F861F87
:101D5000851F846D000E852386238723010E896FDE
:101D600083BFB7EF0EF0B5EF0EF0C1EF0EF0831F9B
:101D7000821F811F806D000E812382238323010E29
:101D8000891B000E8A6F000E8B6F000E8C6F000E89
:101D90008D6F8451851186118711D8B4D2EF0EF062
:101DA000D4EF0EF00AEF0FF0010E886FDEEF0EF0A9
:101DB000D8908437853786378737882B87AFE3EF0E
:101DC0000EF0E5EF0EF0D8EF0EF0D8908A378B3793
:101DD0008C378D378451805D855181598651825968
:101DE00087518359D8A0F7EF0EF0F9EF0EF002EF0C
:101DF0000FF08451805F8551815B8651825B8751F2
:101E0000835B8A81D8908733863385338433882FE8
:101E1000E5EF0EF08951D8B410EF0FF012EF0FF08C
:101E20001AEF0FF08D1F8C1F8B1F8A6D000E8B23F6
:101E30008C238D238AC080F08BC081F08CC082F00F
:101E40008DC083F01200000E0A6E08BE2CEF0FF05A
:101E50002AEF0FF036EF0FF0081E071E061E056C66
:101E6000000E062207220822010E0A6E04BE3DEF74
:101E70000FF03BEF0FF047EF0FF0041E031E021EA2
:101E8000016C000E022203220422010E0A1A000E27
:101E90000B6E000E0C6E000E0D6E000E0E6E0550D9
:101EA000061007100810D8B458EF0FF05AEF0FF0D3
:101EB00090EF0FF0010E096E64EF0FF0D890053629
:101EC000063607360836092A08AE69EF0FF06BEFC1
:101ED0000FF05EEF0FF0D8900B360C360D360E3645
:101EE0000550015C0650025807500358085004582A
:101EF000D8A07DEF0FF07FEF0FF088EF0FF00550C7
:101F0000015E0650025A0750035A0850045A0B80CB
:101F1000D8900832073206320532092E6BEF0FF0E7
:101F20000A50D8B496EF0FF098EF0FF0A0EF0FF033
:101F30000E1E0D1E0C1E0B6C000E0C220D220E220E
:101F40000BC001F00CC002F00DC003F00EC004F095
:101F500012000001D035D135D76FD751D8A4B3EFD7
:101F60000FF0B5EF0FF0BFEF0FF0000ECE6F000EC9
:101F7000CF6F000ED06F000ED16F2CEF10F0CEC0DF
:101F8000D2F0CFC0D3F0D0C0D4F0D1C0D5F0200E65
:101F9000CFEF0FF0D890D533D433D333D233E82EEC
:101FA000CAEF0FF0D251D66FD08FFF0ECE17FF0EB3
:101FB000CF17FF0ED017000ED117960ED75FD7BFE1
:101FC000E6EF0FF0E4EF0FF0FCEF0FF0D751800ACF
:101FD000970FD8B0EEEF0FF0F0EF0FF0F2EF0FF039
:101FE000B5EF0FF0D890D133D033CF33CE33D73FC6
:101FF000F2EF0FF014EF10F01F0ED76502EF10F0A4
:1020000004EF10F00CEF10F0B5EF0FF0D890CE37D2
:10201000CF37D037D137D707D751D8A412EF10F028
:1020200014EF10F006EF10F0D651D8B41AEF10F0FC
:102030001CEF10F024EF10F0D11FD01FCF1FCE6D7A
:10204000000ECF23D023D123CEC0CEF0CFC0CFF00F
:10205000D0C0D0F0D1C0D1F0120051345234586EFB
:102060005850D8A436EF10F038EF10F042EF10F0CF
:10207000000E4F6E000E506E000E516E000E526E2E
:10208000AFEF10F04FC053F050C054F051C055F0B6
:1020900052C056F0200E52EF10F0D8905632553202
:1020A00054325332E82E4DEF10F05350576E518E8C
:1020B000FF0E4F16FF0E5016FF0E5116000E521651
:1020C000960E585E58BE69EF10F067EF10F07FEF84
:1020D00010F05850800A970FD8B071EF10F073EFDE
:1020E00010F075EF10F038EF10F0D89052325132F6
:1020F00050324F32583E75EF10F097EF10F01F0E30
:10210000586485EF10F087EF10F08FEF10F038EF84
:1021100010F0D8904F365036513652365806585037
:10212000D8A495EF10F097EF10F089EF10F057500A
:10213000D8B49DEF10F09FEF10F0A7EF10F0521EF3
:10214000511E501E4F6C000E5022512252224FC081
:102150004FF050C050F051C051F052C052F0120038
:10216000270E00018F6F100E8E6F88C08CF089C013
:102170008DF088518911D8B4C0EF10F0C2EF10F083
:10218000ECEF10F0D2EF10F08EC080F08FC081F035
:10219000000E836F0A0E826F97EC11F080C08EF0F4
:1021A00081C08FF08CC080F08DC081F08EC082F035
:1021B0008FC083F097EC11F0000181BFE8EF10F0C1
:1021C000815108E18005D8A0E8EF10F0EAEF10F0A7
:1021D000C4EF10F0F0EF10F0000E8F6F010E8E6F55
:1021E0008CC080F08DC081F08EC082F08FC083F0F3
:1021F00097EC11F080C08AF081C08BF000018A5109
:10220000300FFDEC12F08EC080F08FC081F08AC0DC
:1022100082F08BC083F078EC13F0000180518C5D6C
:102220008C6F81518D598D6F8EC080F08FC081F081
:10223000000E836F0A0E826F97EC11F080C08EF053
:1022400081C08FF000018FBF30EF11F08F5106E198
:102250008E05D8B02EEF11F030EF11F0F0EF10F046
:10226000120031EC13F0A4EC13F09CEC13F0B3EC7F
:1022700013F0880E00018E6F130E8F6F000E906F9B
:10228000000E916F35EC12F0000E0001D96F000EB8
:10229000D86F86EC0DF0ACEC13F0000ECE6E000E95
:1022A000CF6E0B0E0001DF6F260EDE6F5D0EE82E87
:1022B000FED7DE2FFCD7DF2FFAD700D0CE50CFCFFE
:1022C000DEF00001DF6BDEC0DFF0DE6BDE11E06F01
:1022D000DF51E16FE0C080F0E1C081F0000E836F5C
:1022E0001E0E826F78EC13F080C086F081C087F0FC
:1022F000000E0001896FBB0E886FFAEC11F086C0EA
:10230000E2F087C0E3F0C00E17EC13F0E2C088F0F3
:10231000E3C089F0B0EC10F0340E0001846F060EBB
:10232000856F6EEC12F04DEF11F007EF00F0000E2C
:102330000001856F83BFA1EF11F09FEF11F0A7EFB0
:1023400011F0826D831FD8B0832B010E856F81BF82
:10235000AEEF11F0ACEF11F0B4EF11F0806D811F12
:10236000D8B0812B010E851B000E876F000E866F83
:1023700082518311D8B4BFEF11F0C1EF11F0E9EF32
:1023800011F0010E846FC9EF11F0D89082378337B6
:10239000842B83AFCEEF11F0D0EF11F0C5EF11F029
:1023A000D890863787378251805D83518159D8A074
:1023B000DCEF11F0DEEF11F0E3EF11F08251805FFE
:1023C0008351815B8681D89083338233842FD0EF11
:1023D00011F08551D8B4EFEF11F0F1EF11F0F5EFF6
:1023E00011F0866D871FD8B0872B86C080F087C01C
:1023F00081F01200000E00018B6F000E8A6F885171
:102400008911D8B406EF12F008EF12F030EF12F095
:10241000010E8C6F10EF12F0D890883789378C2B13
:1024200089AF15EF12F017EF12F00CEF12F0D89001
:102430008A378B378851865D89518759D8A023EF19
:1024400012F025EF12F02AEF12F08851865F8951C1
:10245000875B8A81D890893388338C2F17EF12F0ED
:102460008AC086F08BC087F01200000E0001806FDA
:10247000120E816F7A0E826F000E836F8EC092F003
:102480008FC093F090C094F091C095F0020ED89058
:102490009237933794379537E82E47EF12F0020EB4
:1024A000D8909237933794379537E82E50EF12F043
:1024B00092C084F093C085F094C086F095C087F0F8
:1024C0009CEC0EF000018005CB6E8EC0E4F08FC056
:1024D000E5F090C0E6F091C0E7F01200000E0001B8
:1024E000896F000E886F86EF12F088518425866F01
:1024F00089518521876F86C0F6FF87C0F7FF0800E6
:10250000F550FDEC12F00001884B892B84C080F05F
:1025100085C081F0C1EC12F000018051885D8151CD
:102520008959D8A096EF12F098EF12F075EF12F0DB
:102530001200000E0A6E000E096EAFEF12F0095085
:102540000524076E0A500620086E07C0F6FF08C073
:10255000F7FF0800F5504AEC13F0094A0A2A05C0B3
:1025600001F006C002F0E0EC12F00150095C0250EC
:102570000A58D8A0BEEF12F0C0EF12F09FEF12F091
:10258000120080C082F081C083F0CAEF12F0000117
:10259000804B812B80C0F6FF81C0F7FF0800F5500B
:1025A0000009D8A4D6EF12F0D8EF12F0C7EF12F05E
:1025B00000018251805D806F83518159816F1200CB
:1025C00001C003F002C004F0E8EF12F0014A022A51
:1025D00001C0F6FF02C0F7FF0800F5500009D8A4BB
:1025E000F4EF12F0F6EF12F0E6EF12F00350015C98
:1025F000016E04500258026E12000001816F829C2D
:10260000828A81C083FF828E070E0001806F7D0E5B
:10261000E82EFED7802FFCD7829E140E0001806F1B
:10262000790EE82EFED7802FFCD700D012000001D3
:10263000816F829C829A81C083FF828E070E000187
:10264000806F7D0EE82EFED7802FFCD7829E140E61
:102650000001806F790EE82EFED7802FFCD700D0C6
:102660001200000E956E000E946E000E826E000E2B
:10267000836E380E17EC13F00C0E17EC13F0010EEE
:1026800017EC13F0280E0001846F060E856F6EECB8
:1026900012F01200026E829C828A02C083FF828E38
:1026A000070E016E7D0EE82EFED7012EFCD700F03E
:1026B000829E140E016E7A0EE82EFED7012EFCD7F4
:1026C0001200026E829C829A02C083FF828E070EE5
:1026D000016E7D0EE82EFED7012EFCD700F0829E03
:1026E000140E016E7A0EE82EFED7012EFCD71200D2
:1026F000000180518203F3CF84F0F4CF85F0805144
:102700008303F350852781518203F350852784C0CA
:1027100080F085C081F012000001E76BE66BE56B8D
:10272000E46B666A656A67906792000EF86E060E43
:10273000F76E000131EF11F09480030ECD6E000EA4
:10274000CE6E000ECF6E120093688168000EF26E9E
:10275000F28EF28CF2861200BD86BD84CA80CA92C7
:10276000CA84949412009496949882968288120057
:020000040020DA
:08000000FFFFFFFFFFFFFFFF00
:020000040030CA
:0E000000FF071F1EFF0180FF0FC00FE00F4023
:00000001FF
