:020000040000FA
:0400000007EF00F016
:10000800018209ED00F038EF00F00600010EF2A4BD
:10001800000EF2AA000EE8A014EF00F016EF00F0B0
:100028001CEF00F0811E000ED76E640ED66EF2949F
:1000380001921100F28AF28EF294D58ED58CD59A5F
:10004800D598D596D590D592D584000ED76E640EE6
:10005800D66E1200000E936E000E816E1EEC00F03C
:1000680034EF00F007EF00F00190019200012EEF4D
:0200780000F096
:020000040020DA
:08000000FFFFFFFFFFFFFFFF00
:020000040030CA
:0E000000FF071F1EFF0180FF0FC00FE00F4023
:00000001FF
