:020000040000FA
:04000000CBEF3FF013
:107F96000001D3EF3FF0CD80CD92CD98CD8A12006F
:107FA600000E936E000E816ECEEC3FF0000E026E58
:107FB600640E016EE4EC3FF0811ED9EF3FF000EF56
:107FC60000F0F2EF3FF09E90FB0ECF6E1F0ECE6ECE
:107FD6009EA0F0EF3FF0F2EF3FF0EBEF3FF001062F
:107FE600D8A00206012806E10228D8A4FDEF3FF03A
:0A7FF600FFEF3FF0E6EF3FF012004E
:020000040020DA
:08000000FFFFFFFFFFFFFFFF00
:020000040030CA
:0E000000FF071F1EFF0180FF0FC00FE00F4023
:00000001FF
