:020000040000FA
:0400000007EF00F016
:10000800078209ED00F02CEF00F00600F2A00FEFD8
:1000180000F011EF00F029EF00F081B816EF00F0C2
:1000280018EF00F019EF00F0831E81BA1EEF00F000
:1000380020EF00F021EF00F0831E81BC26EF00F0D6
:1000480028EF00F029EF00F0831EF29007921100CC
:10005800066A056A046A036A026A016A07900792D7
:10006800000137EF00F041EC00F0000E956E000E35
:10007800836E3DEF00F007EF00F093688168000E93
:08008800F26EF28EF286120006
:020000040020DA
:08000000FFFFFFFFFFFFFFFF00
:020000040030CA
:0E000000FF071F1EFF0180FF0FC00FE00F4023
:00000001FF
