:020000040000FA
:040000005DEF39F087
:1072BA00000167EF39F0BD86BD84CA80CA82CA84DC
:1072CA0094941200320E0F6E000E106E000E116EA4
:1072DA00000E126E7BEC39F0000E5A6E6A0E596E71
:1072EA00BBEC3AF060EC39F000EF00F0200E016ED2
:1072FA00A10E026E070E036E000E046E0FC013F08D
:10730A0010C014F011C015F012C016F0020ED89079
:10731A001336143615361636E82E8CEF39F0040E6D
:10732A00D8901336143615361636E82E95EF39F0FE
:10733A0013C005F014C006F015C007F016C008F017
:10734A0035EC3AF00104CB6E0FC05FF010C060F06C
:10735A0011C061F012C062F0120051345234586EFA
:10736A005850D8A4BBEF39F0BDEF39F0C7EF39F068
:10737A00000E4F6E000E506E000E516E000E526ED1
:10738A0034EF3AF04FC053F050C054F051C055F0AA
:10739A0052C056F0200ED7EF39F0D89056325532F7
:1073AA0054325332E82ED2EF39F05350576E518E81
:1073BA00FF0E4F16FF0E5016FF0E5116000E5216F4
:1073CA00960E585E58BEEEEF39F0ECEF39F004EF46
:1073DA003AF05850800A970FD8B0F6EF39F0F8EF24
:1073EA0039F0FAEF39F0BDEF39F0D8905232513214
:1073FA0050324F32583EFAEF39F01CEF3AF01F0E76
:10740A0058640AEF3AF00CEF3AF014EF3AF0BDEF95
:10741A0039F0D8904F3650365136523658065850B1
:10742A00D8A41AEF3AF01CEF3AF00EEF3AF05750A0
:10743A00D8B422EF3AF024EF3AF02CEF3AF0521E89
:10744A00511E501E4F6C000E5022512252224FC024
:10745A004FF050C050F051C051F052C052F01200DB
:10746A00000E0A6E08BE3EEF3AF03CEF3AF048EFE3
:10747A003AF0081E071E061E056C000E0622072299
:10748A000822010E0A6E04BE4FEF3AF04DEF3AF0B1
:10749A0059EF3AF0041E031E021E016C000E02226E
:1074AA0003220422010E0A1A000E0B6E000E0C6E45
:1074BA00000E0D6E000E0E6E055006100710081015
:1074CA00D8B46AEF3AF06CEF3AF0A2EF3AF0010E54
:1074DA00096E76EF3AF0D890053606360736083642
:1074EA00092A08AE7BEF3AF07DEF3AF070EF3AF0F6
:1074FA00D8900B360C360D360E360550015C065008
:10750A0002580750035808500458D8A08FEF3AF091
:10751A0091EF3AF09AEF3AF00550015E0650025A9E
:10752A000750035A0850045A0B80D8900832073281
:10753A0006320532092E7DEF3AF00A50D8B4A8EF88
:10754A003AF0AAEF3AF0B2EF3AF00E1E0D1E0C1EF8
:10755A000B6C000E0C220D220E220BC001F00CC087
:10756A0002F00DC003F00EC004F01200040E5A5CC3
:10757A00D8B0C2EF3AF0C4EF3AF043EF3BF05FC045
:10758A005BF060C05CF061C05DF062C05EF0040E4A
:10759A00D8905B365C365D365E36E82ECDEF3AF033
:1075AA005BC005F05CC006F05DC007F05EC008F085
:1075BA00200E016EA10E026E070E036E000E046EFF
:1075CA0035EC3AF001C00FF002C010F003C011F020
:1075DA0004C012F0010E44EC3BF00FC03AF010C0A8
:1075EA003BF011C03CF012C03DF0000E216EC00EFF
:1075FA00226E7F0E236E440E246E59C00FF05AC0BD
:10760A0010F0116A126A000E44EC3BF00FC01DF034
:10761A0010C01EF011C01FF012C020F01EEC3CF08A
:10762A001DC036F01EC037F01FC038F020C039F038
:10763A00EBEC3DF036C04FF037C050F038C051F097
:10764A0039C052F0B2EC39F04FC059F050C05AF07C
:10765A00BD9A59B033EF3BF036EF3BF0BD8837EFB8
:10766A003BF0BD9859C05BF05AC05CF0D8905C32D0
:10767A005B32D8905C325B325B50BE6E1200176E82
:10768A001750D8B44BEF3BF04DEF3BF06FEF3BF0A8
:10769A0012BE54EF3BF052EF3BF06FEF3BF00FC0DE
:1076AA0013F010C014F011C015F012C016F0131E1A
:1076BA00141E151E161E132A000E14221522162237
:1076CA0013C019F014C01AF015C01BF016C01CF034
:1076DA0077EF3BF00FC019F010C01AF011C01BF081
:1076EA0012C01CF00F50101011101210D8A480EF05
:1076FA003BF082EF3BF08CEF3BF0000E0F6E000E7A
:10770A00106E000E116E000E126E1DEF3CF0960EFA
:10771A00186E96EF3BF0182AD8901C321B321A3298
:10772A001932000E1914136E000E1A14146E000E7C
:10773A001B14156EFE0E1C14166E13501410151021
:10774A001610D8A4ABEF3BF0ADEF3BF090EF3BF057
:10775A00BBEF3BF0182A010E1926000E1A221B2233
:10776A001C22D8901C321B321A321932000E1914FC
:10777A00136E000E1A14146E000E1B14156EFF0EF3
:10778A001C14166E1350141015101610D8A4D0EF2E
:10779A003BF0D2EF3BF0AFEF3BF0DAEF3BF01806ED
:1077AA00D89019361A361B361C361BBEDFEF3BF053
:1077BA00E1EF3BF0E9EF3BF0020E1860E7EF3BF038
:1077CA00E9EF3BF0D4EF3BF018B0EEEF3BF0F0EF0F
:1077DA003BF0F1EF3BF01B9ED890183218C013F023
:1077EA00146A156A166A13C016F0156A146A136ABF
:1077FA001350191214501A1215501B1216501C123B
:10780A001750D8B40BEF3CF00DEF3CF015EF3CF0FD
:10781A0012BE14EF3CF012EF3CF015EF3CF01C8E58
:10782A0019C00FF01AC010F01BC011F01CC012F0E2
:10783A0012002050800B2D6E20502024346E1FAE73
:10784A0029EF3CF02BEF3CF02CEF3CF03480345025
:10785A00D8B432EF3CF034EF3CF049EF3CF0342836
:10786A00D8A43AEF3CF03CEF3CF044EF3CF0000E79
:10787A001D6E000E1E6E000E1F6E000E206E1F8EF5
:10788A00000E206E51EF3CF0000E1D6E000E1E6EB3
:10789A00000E1F6E000E206E2450800B2D1A2450ED
:1078AA002424356E23AE5CEF3CF05EEF3CF05FEFD4
:1078BA003CF035803550D8B465EF3CF067EF3CF0CA
:1078CA007CEF3CF03528D8A46DEF3CF06FEF3CF02C
:1078DA0077EF3CF0000E216E000E226E000E236E32
:1078EA00000E246E238E000E246E84EF3CF0000EF0
:1078FA00216E000E226E000E236E000E246E2150A1
:10790A00221023102410D8A48DEF3CF08FEF3CF006
:10791A00A7EF3CF0000E1D6E000E1E6E000E1F6ECD
:10792A00000E206E800E1F127F0E20122D50201284
:10793A001DC01DF01EC01EF01FC01FF020C020F089
:10794A00EAEF3DF03450D8A4ADEF3CF0AFEF3CF095
:10795A00B9EF3CF0000E1D6E000E1E6E000E1F6E7B
:10796A00000E206EEAEF3DF0355034C025F0266A4D
:10797A00255E000E265A7F0E25242E6E000E262026
:10798A002F6E1DC029F01EC02AF01FC02BF020C088
:10799A002CF0000E1D6E000E1E6E000E1F6E000EE5
:1079AA00206E000E306E000E316E000E326E000E2A
:1079BA00336E000E356E1AEF3DF03550D8B4E8EF4D
:1079CA003CF0EAEF3CF001EF3DF0D89029362A3638
:1079DA002B362C36D8901D361E361F36203633AE3F
:1079EA00F9EF3CF0FBEF3CF0FCEF3CF01D80D89047
:1079FA0030363136323633362150295C22502A58F5
:107A0A0023502B5824502C58D8A00EEF3DF010EFDD
:107A1A003DF019EF3DF0338C2150295E22502A5A4D
:107A2A0023502B5A24502C5A352A190E356420EF2C
:107A3A003DF022EF3DF0E2EF3CF029502A102B10E6
:107A4A002C10D8B42BEF3DF02DEF3DF045EF3DF073
:107A5A00308045EF3DF0D8901D361E361F36203651
:107A6A0033AE3AEF3DF03CEF3DF03DEF3DF01D8087
:107A7A00D89030363136323633362E06D8A02F0615
:107A8A001FAE4AEF3DF04CEF3DF030EF3DF0000EF7
:107A9A00356E33AE53EF3DF055EF3DF079EF3DF0E3
:107AAA00FF0E3014256EFF0E3114266EFF0E3214AF
:107ABA00276E7F0E3314286E2550261027102810A3
:107ACA00D8B46AEF3DF06CEF3DF070EF3DF0010E77
:107ADA00356E79EF3DF01DA075EF3DF077EF3DF083
:107AEA0079EF3DF06CEF3DF03550D8B47FEF3DF0C3
:107AFA0081EF3DF0A5EF3DF0010E1D26000E1E227E
:107B0A001F22202220A08CEF3DF08EEF3DF0A5EF42
:107B1A003DF01DC025F01EC026F01FC027F020C072
:107B2A0028F02834283227322632253225C01DF083
:107B3A0026C01EF027C01FF028C020F02E4A2F2A88
:107B4A002FBEB0EF3DF02F5008E12E28D8A0B0EF9D
:107B5A003DF0B2EF3DF0BDEF3DF0000E2F6E2E6806
:107B6A00000E1D6E000E1E6E000E1F6E000E206EA1
:107B7A002FBECAEF3DF02F5006E12E04D8B0C8EF51
:107B8A003DF0CAEF3DF0D8EF3DF0000E2F6E000E2B
:107B9A002E6E000E1D6E000E1E6E000E1F6E000E63
:107BAA00206E000E2D6E2EC034F034A0DFEF3DF0B3
:107BBA00E1EF3DF0E4EF3DF01F8EE5EF3DF01F9E53
:107BCA00D8903430206E9BEF3CF012003950800B75
:107BDA00426E39503924486E38AEF6EF3DF0F8EF70
:107BEA003DF0F9EF3DF048804850D8B4FFEF3DF042
:107BFA0001EF3EF014EF3EF04828D8A407EF3EF01C
:107C0A0009EF3EF011EF3EF0000E366E000E376EB1
:107C1A00000E386E000E396E388E1CEF3EF0000EE4
:107C2A00366E000E376E000E386E000E396E3D50FD
:107C3A00800B421A3D503D24476E3CAE27EF3EF082
:107C4A0029EF3EF02AEF3EF047804750D8B430EF94
:107C5A003EF032EF3EF045EF3EF04728D8A438EF29
:107C6A003EF03AEF3EF042EF3EF0000E3A6E000E62
:107C7A003B6E000E3C6E000E3D6E3C8E4DEF3EF0AC
:107C8A00000E3A6E000E3B6E000E3C6E000E3D6E0C
:107C9A004750D8B453EF3EF055EF3EF05DEF3EF05B
:107CAA004850D8A45BEF3EF05DEF3EF067EF3EF040
:107CBA00000E366E000E376E000E386E000E396EEC
:107CCA00FFEF3FF03C503602F3CF4DF0F4CF4EF0C9
:107CDA004D50436E446A456A466A4E50496E4A6A36
:107CEA004B6A4C6A3B503702F3CF4DF0F4CF4EF05B
:107CFA004D504326000E4422452246224E50492624
:107D0A00000E4A224B224C223A503802F3CF4DF051
:107D1A00F4CF4EF04D504326000E4422452246220F
:107D2A004E504926000E4A224B224C2245C046F0AC
:107D3A0044C045F043C044F0436A3A503702F3CF97
:107D4A004DF0F4CF4EF04D5043264E504422000ED3
:107D5A004522000E46223B503602F3CF4DF0F4CFB7
:107D6A004EF04D5043264E504422000E4522000E3E
:107D7A00462245C046F044C045F043C044F0436A39
:107D8A003A503602F3CF4DF0F4CF4EF04D50432621
:107D9A004E504422000E4522000E46223C50370225
:107DAA00F3CF4DF0F4CF4EF04D5049264E504A22B3
:107DBA00000E4B22000E4C223B503802F3CF4DF0FE
:107DCA00F4CF4EF04D5049264E504A22000E4B2217
:107DDA00000E4C223C503802F3CF4DF0F4CF4EF057
:107DEA004D503E6E4E503F6E406A416A40C041F06F
:107DFA003FC040F03EC03FF03E6A3E5049263F50E9
:107E0A004A2240504B2241504C2243C03EF044C0CB
:107E1A003FF045C040F046C041F0190E1AEF3FF05E
:107E2A00D890413240323F323E32E82E15EF3FF0D1
:107E3A003E5049263F504A2240504B2241504C2244
:107E4A0045C046F044C045F043C044F0436A475039
:107E5A0048C03EF03F6A3E26000E3F22820E3E2474
:107E6A004D6EFF0E3F204E6E50EF3FF0D8904936D0
:107E7A004A364B364C3646AE45EF3FF047EF3FF0B9
:107E8A0048EF3FF04980D890433644364536463667
:107E9A004D06D8A04E064BAE55EF3FF057EF3FF0D8
:107EAA003BEF3FF0000E476E46AE5EEF3FF060EFED
:107EBA003FF084EF3FF0FF0E43143E6EFF0E441472
:107ECA003F6EFF0E4514406E7F0E4614416E3E50C3
:107EDA003F1040104110D8B475EF3FF077EF3FF0F4
:107EEA007BEF3FF0010E476E84EF3FF049A080EF31
:107EFA003FF082EF3FF084EF3FF077EF3FF04750DB
:107F0A00D8B48AEF3FF08CEF3FF0B0EF3FF0010EAC
:107F1A004926000E4A224B224C224CA097EF3FF0F2
:107F2A0099EF3FF0B0EF3FF049C03EF04AC03FF052
:107F3A004BC040F04CC041F04134413240323F32F4
:107F4A003E323EC049F03FC04AF040C04BF041C00B
:107F5A004CF04D4A4E2A4EBEBBEF3FF04E5008E160
:107F6A004D28D8A0BBEF3FF0BDEF3FF0C7EF3FF081
:107F7A00000E496E000E4A6E800E4B6E7F0E4C6EDE
:107F8A00F5EF3FF04EBED4EF3FF04E5006E14D0400
:107F9A00D8B0D2EF3FF0D4EF3FF0E0EF3FF0000E61
:107FAA00496E000E4A6E000E4B6E000E4C6E000EAD
:107FBA00426EF5EF3FF04DC048F0FF0E4916FF0E36
:107FCA004A167F0E4B16000E4C1648A0EFEF3FF0F4
:107FDA00F1EF3FF0F2EF3FF04B8ED89048304C6E05
:107FEA0042504C1249C036F04AC037F04BC038F004
:067FFA004CC039F012003A
:020000040020DA
:08000000FFFFFFFFFFFFFFFF00
:020000040030CA
:0E000000FF071F1EFF0180FF0FC00FE00F4023
:00000001FF
