:020000040000FA
:100000000A128A11FC2F00308A000408840A820731
:10001000003420346334683475346334203433342A
:0C00200020346D3475346E3467340034C5
:100C1E00F3007308F2007208F400192E0130F2008E
:100C2E007208F407740884000A128A1103200A124B
:100C3E008A11003A031D242E252E152E73087402D8
:100C4E00F000F101F01BF1030800F200FD30F0009E
:100C5E00700883120313880508147208870008159C
:100C6E000330F1009730F000F00B3B2EF10B3B2ED2
:100C7E00402EFB30F00070088312031388050830F5
:100C8E00F100C930F000F00B4A2EF10B4A2E4F2E18
:100C9E000800F401F501701C552E562E5C2E7208BC
:100CAE00F4070318F50A7308F50701300310F20D67
:100CBE00F30DFF3E031D5D2E01300310F10CF00C01
:100CCE00FF3E031D642E70087104031D6F2E702EDF
:100CDE00522E7508F1007408F0000800F200FD3085
:100CEE00F0007008831203138805FE30F0007008C0
:100CFE0088057208870008150330F1009730F00060
:100D0E00F00B872EF10B872E8C2EFB30F000700827
:100D1E008312031388050830F100C930F000F00B80
:100D2E00962EF10B962E9B2E0800F700F501F6017C
:100D3E00B32E7508770784000A128A1103200A124F
:100D4E008A110A128A112C260A128A110130F5070D
:100D5E000318F60A0030F60777080A128A110F26D2
:100D6E000A128A1171087602031DBF2E70087502D1
:100D7E00031CC22EC32EA02E080083160313880157
:100D8E008701831203138701880138300A128A11F2
:100D9E0075260A128A110C300A128A1175260A1249
:100DAE008A1101300A128A1175260A128A11003030
:100DBE00F900FA000A128A116C270A128A11013000
:100DCE000A128A119C260A128A11831203130F0823
:100DDE00FC000E08FB00C0300A128A1175260A129A
:100DEE008A117C08FA007B08F9000A128A116C2716
:100DFE000A128A11EC2E0A128A110028F601F11F2E
:100E0E00092F0A2F112FF009F109F00A0319F10A1F
:100E1E00F601F60AF31F142F152F1E2FF209F309F0
:100E2E00F20A0319F30A0130F4007408F606F7010A
:100E3E00F801700871040319252F262F5D2FF50177
:100E4E00F50A342F01300310F00DF10DFF3E031D96
:100E5E002A2F0130F4007408F507F11F372F382FB1
:100E6E00292F01300310F70DF80DFF3E031D392F0A
:100E7E0071087302031D452F70087202031C482F60
:100E8E00492F502F7008F2027108031CF303F3026E
:100E9E00771401300310F10CF00CFF3E031D512F9F
:100EAE000130F502031D5C2F5D2F382F76080319D4
:100EBE00612F622F672FF709F809F70A0319F80A4D
:100ECE007808F1007708F000080010308312031341
:100EDE00A4002730A5007A08A3007908A2008C2F61
:100EEE000A30F0000030F100831203132508F300DE
:100EFE002408F2000A128A1105270A128A117108B3
:100F0E0083120313A5007008A4002508F10024081D
:100F1E00F0002308F3002208F2000A128A110527B6
:100F2E000A128A117108803AFF0080307F02031D79
:100F3E00A22F01307002031CA52FA62F772F83122C
:100F4E0003132508F1002408F0002308F3002208FB
:100F5E00F2000A128A1105270A128A1171088312E9
:100F6E000313A1007008A0002008303E0A128A1157
:100F7E002C260A128A11831203132508F100240865
:100F8E00F0002108F3002008F2000A128A11502600
:100F9E000A128A117008831203132202A20071082A
:100FAE00031C710A2302A3000A30F0000030F10086
:100FBE002508F3002408F2000A128A1105270A12E6
:100FCE008A11710883120313A5007008A400250866
:100FDE00803AFF0080307F02031DF72F013024027C
:100FEE000318FA2FFB2FA62F080083010A128A116D
:020FFE00C42EFF
:02400E00FF3F72
:00000001FF
