:020000040000FA
:04000000BDEF04F05C
:0F0600000020636875632033206D756E670000FE
:10061000270E106E100E0F6E09C00DF00AC00EF0FE
:1006200009500A10D8B417EF03F019EF03F042EFA6
:1006300003F029EF03F00FC001F010C002F0000E2C
:10064000046E0A0E036E84EC03F001C00FF002C0CA
:1006500010F00DC001F00EC002F00FC003F010C08A
:1006600004F084EC03F002BE3EEF03F0025008E118
:100670000104D8A03EEF03F040EF03F01BEF03F0BE
:1006800046EF03F0000E106E010E0F6E0DC001F06C
:100690000EC002F00FC003F010C004F084EC03F0B1
:1006A00001C00BF002C00CF00B50300F7EEC04F0D8
:1006B0000FC001F010C002F00BC003F00CC004F03A
:1006C000AAEC04F001500D5C0D6E02500E580E6E37
:1006D0000FC001F010C002F0000E046E0A0E036E8F
:1006E00084EC03F001C00FF002C010F010BE83EFE5
:1006F00003F0105006E10F04D8B081EF03F083EF50
:1007000003F046EF03F01200000E066E04BE8DEFFC
:1007100003F08BEF03F093EF03F0036C041ED8B0EB
:10072000042A010E066E02BE9AEF03F098EF03F062
:10073000A0EF03F0016C021ED8B0022A010E061AC7
:10074000000E086E000E076E03500410D8B4ABEF15
:1007500003F0ADEF03F0D5EF03F0010E056EB5EF3A
:1007600003F0D89003360436052A04AEBAEF03F03E
:10077000BCEF03F0B1EF03F0D89007360836035012
:10078000015C04500258D8A0C8EF03F0CAEF03F090
:10079000CFEF03F00350015E0450025A0780D89057
:1007A00004320332052EBCEF03F00650D8B4DBEF61
:1007B00003F0DDEF03F0E1EF03F0076C081ED8B0A3
:1007C000082A07C001F008C002F01200000E946E63
:1007D000000E956E000E826E000E836E380E94EC45
:1007E00004F00C0E94EC04F0010E94EC04F0000EF6
:1007F0000A6E220E096E08EC03F0010E056E060E5D
:10080000066E39EC04F0C4EC04F0CE50CFCF11F0FA
:10081000126A11C012F0116A1110136E1250146E88
:100820000B0E126E260E116E5E0EE82EFED7112EE6
:10083000FCD7122EFAD7CE50CFCF11F0126A11C0CA
:1008400012F0116A1110156E1250166E1350155CCD
:10085000176E14501658186EC00E94EC04F017C0A2
:1008600009F018C00AF008EC03F005EF04F000EFFF
:1008700000F0000E0A6E000E096E4FEF04F00950F2
:100880000524076E0A500620086E07C0F6FF08C050
:10089000F7FF0800F5507EEC04F0094A0A2A05C06B
:1008A00001F006C002F061EC04F00150095C025056
:1008B0000A58D8A05EEF04F060EF04F03FEF04F0B8
:1008C000120001C003F002C004F069EF04F0014A15
:1008D000022A01C0F6FF02C0F7FF0800F550000928
:1008E000D8A475EF04F077EF04F067EF04F003503D
:1008F000015C016E04500258026E1200026E829C6E
:10090000828A02C083FF828E030E016E980EE82E4B
:10091000FED7012EFCD7829E080E016ECA0EE82E6D
:10092000FED7012EFCD71200026E829C829A02C072
:1009300083FF828E030E016E980EE82EFED7012EE5
:10094000FCD7829E080E016ECA0EE82EFED7012E3D
:10095000FCD7120001500302F3CF05F0F4CF06F0EC
:1009600001500402F350062602500302F3500626FB
:1009700005C001F006C002F01200000EF86E060E6F
:10098000F76E0001E6EF03F0030ECD6E000ECE6EA3
:06099000000ECF6E120004
:020000040020DA
:08000000FFFFFFFFFFFFFFFF00
:020000040030CA
:0E000000FF07191EFF0180FF0FC00FE00F4029
:00000001FF
