:020000040000FA
:04000000CAEF04F04F
:10060000002063687563206D756E672032204C6929
:100610006E680000270E106E100E0F6E09C00DF0F0
:100620000AC00EF022EF03F00FC001F010C002F07C
:10063000000E046E0A0E036E77EC03F001C00FF09B
:1006400002C010F00DC001F00EC002F00FC003F0A8
:1006500010C004F077EC03F002BE37EF03F0025055
:1006600008E10104D8A037EF03F039EF03F014EFED
:1006700003F00DC001F00EC002F00FC003F010C077
:1006800004F077EC03F001C00BF002C00CF00B504B
:10069000300FD9EC03F00FC001F010C002F00BC016
:1006A00003F00CC004F0B7EC04F001500D5C0D6ECB
:1006B00002500E580E6E0FC001F010C002F0000E76
:1006C000046E0A0E036E77EC03F001C00FF002C057
:1006D00010F010BE76EF03F0105006E10F04D8B012
:1006E00074EF03F076EF03F039EF03F01200000E21
:1006F000066E04BE80EF03F07EEF03F086EF03F09A
:10070000036C041ED8B0042A010E066E02BE8DEFE3
:1007100003F08BEF03F093EF03F0016C021ED8B0EF
:10072000022A010E061A000E086E000E076E035014
:100730000410D8B49EEF03F0A0EF03F0C8EF03F06D
:10074000010E056EA8EF03F0D89003360436052A93
:1007500004AEADEF03F0AFEF03F0A4EF03F0D890D9
:10076000073608360350015C04500258D8A0BBEF8E
:1007700003F0BDEF03F0C2EF03F00350015E04503D
:10078000025A0780D89004320332052EAFEF03F0EF
:100790000650D8B4CEEF03F0D0EF03F0D4EF03F05F
:1007A000076C081ED8B0082A07C001F008C002F084
:1007B0001200036E03C001F0F00E011682500F0B01
:1007C0000110826E839283808384030E016E980EE3
:1007D000E82EFED7012EFCD78394030E026E080E7E
:1007E000016E770EE82EFED7012EFCD7022EFAD727
:1007F00000F003C001F0013AF00E011682500F0B19
:100800000110826E8384030E016E980EE82EFED7CF
:10081000012EFCD78394080E016ECA0EE82EFED777
:10082000012EFCD71200036E03C001F0F00E01167A
:1008300082500F0B0110826E839283908384030E8B
:10084000016E980EE82EFED7012EFCD78394030E7E
:10085000026E080E016E770EE82EFED7012EFCD731
:10086000022EFAD700F003C001F0013AF00E011693
:1008700082500F0B0110826E8384030E016E980E5E
:10088000E82EFED7012EFCD78394080E016ECA0E07
:10089000E82EFED7012EFCD71200000E0A6E000EC5
:1008A000096E63EF04F009500524076E0A50062014
:1008B000086E07C0F6FF08C0F7FF0800F550D9EC36
:1008C00003F0094A0A2A05C001F006C002F09AECBA
:1008D00004F00150095C02500A58D8A072EF04F0ED
:1008E00074EF04F053EF04F01200000E946E000E4B
:1008F000956E000E836E000E826E020E13EC04F0F5
:10090000280E13EC04F00C0E13EC04F0010E13ECA3
:1009100004F0010E056E060E066E4DEC04F0C00EDE
:1009200013EC04F0770E0A6E240E096E0AEC03F045
:1009300000EF00F001C003F002C004F0A2EF04F0E9
:10094000014A022A01C0F6FF02C0F7FF0800F55075
:100950000009D8A4AEEF04F0B0EF04F0A0EF04F06B
:100960000350015C016E04500258026E12000150E7
:100970000302F3CF05F0F4CF06F001500402F35068
:10098000062602500302F350062605C001F006C0F9
:1009900002F01200000EF86E060EF76E000175EF01
:0209A00004F061
:020000040020DA
:08000000FFFFFFFFFFFFFFFF00
:020000040030CA
:0E000000FF07191EFF0180FF0FC00FE00F4029
:00000001FF
