:020000040000FA
:0400000007EF00F016
:10000800638285ED09F0C0EF0DF00001B851800B57
:10001800C16FB851B825C76FB7AF15EF00F017EF2C
:1000280000F018EF00F0C781C751D8B41EEF00F0F8
:1000380020EF00F033EF00F0C729D8A426EF00F036
:1000480028EF00F030EF00F0000EB56F000EB66F2D
:10005800000EB76F000EB86FB78F3BEF00F0000EC1
:10006800B56F000EB66F000EB76F000EB86FBC51BB
:10007800800BC11BBC51BC25C66FBBAF46EF00F05F
:1000880048EF00F049EF00F0C681C651D8B44FEFF1
:1000980000F051EF00F064EF00F0C629D8A457EF44
:1000A80000F059EF00F061EF00F0000EB96F000E9C
:1000B800BA6F000EBB6F000EBC6FBB8F6CEF00F009
:1000C800000EB96F000EBA6F000EBB6F000EBC6F4A
:1000D800C651D8B472EF00F074EF00F07CEF00F076
:1000E800C751D8A47AEF00F07CEF00F086EF00F05B
:1000F800000EB56F000EB66F000EB76F000EB86F2A
:100108001EEF02F0BB51B503F3CFCCF0F4CFCDF026
:10011800CC51C26FC36BC46BC56BCD51C86FC96B73
:10012800CA6BCB6BBA51B603F3CFCCF0F4CFCDF09A
:10013800CC51C227000EC323C423C523CD51C827E1
:10014800000EC923CA23CB23B951B703F3CFCCF090
:10015800F4CFCDF0CC51C227000EC323C423C5234E
:10016800CD51C827000EC923CA23CB23C4C0C5F06C
:10017800C3C0C4F0C2C0C3F0C26BB951B603F3CF59
:10018800CCF0F4CFCDF0CC51C227CD51C323000E13
:10019800C423000EC523BA51B503F3CFCCF0F4CF76
:1001A800CDF0CC51C227CD51C323000EC423000E7D
:1001B800C523C4C0C5F0C3C0C4F0C2C0C3F0C26B7D
:1001C800B951B503F3CFCCF0F4CFCDF0CC51C22761
:1001D800CD51C323000EC423000EC523BB51B60363
:1001E800F3CFCCF0F4CFCDF0CC51C827CD51C923F3
:1001F800000ECA23000ECB23BA51B703F3CFCCF0BD
:10020800F4CFCDF0CC51C827CD51C923000ECA2355
:10021800000ECB23BB51B703F3CFCCF0F4CFCDF016
:10022800CC51BD6FCD51BE6FBF6BC06BBFC0C0F0AE
:10023800BEC0BFF0BDC0BEF0BD6BBD51C827BE512A
:10024800C923BF51CA23C051CB23C2C0BDF0C3C00C
:10025800BEF0C4C0BFF0C5C0C0F0190E39EF01F040
:10026800D890C033BF33BE33BD33E82E34EF01F02E
:10027800BD51C827BE51C923BF51CA23C051CB2382
:10028800C4C0C5F0C3C0C4F0C2C0C3F0C26BC6517D
:10029800C7C0BDF0BE6BBD27000EBE23820EBD25B4
:1002A800CC6FFF0EBE21CD6F6FEF01F0D890C8372D
:1002B800C937CA37CB37C5AF64EF01F066EF01F035
:1002C80067EF01F0C881D890C237C337C437C53744
:1002D800CC07D8A0CD07CAAF74EF01F076EF01F0D4
:1002E8005AEF01F0000EC66FC5AF7DEF01F07FEF4A
:1002F80001F0A3EF01F0FF0EC215BD6FFF0EC3158D
:10030800BE6FFF0EC415BF6F7F0EC515C06FBD5100
:10031800BE11BF11C011D8B494EF01F096EF01F0EF
:100328009AEF01F0010EC66FA3EF01F0C8A19FEF8D
:1003380001F0A1EF01F0A3EF01F096EF01F0C65133
:10034800D8B4A9EF01F0ABEF01F0CFEF01F0010E47
:10035800C827000EC923CA23CB23CBA1B6EF01F0CF
:10036800B8EF01F0CFEF01F0C8C0BDF0C9C0BEF0D2
:10037800CAC0BFF0CBC0C0F0C035C033BF33BE3336
:10038800BD33BDC0C8F0BEC0C9F0BFC0CAF0C0C050
:10039800CBF0CC4BCD2BCDBFDAEF01F0CD5108E13E
:1003A800CC29D8A0DAEF01F0DCEF01F0E6EF01F09C
:1003B800000EC86F000EC96F800ECA6F7F0ECB6F1C
:1003C80014EF02F0CDBFF3EF01F0CD5106E1CC05FB
:1003D800D8B0F1EF01F0F3EF01F0FFEF01F0000EFC
:1003E800C86F000EC96F000ECA6F000ECB6F000EEB
:1003F800C16F14EF02F0CCC0C7F0FF0EC817FF0E94
:10040800C9177F0ECA17000ECB17C7A10EEF02F04F
:1004180010EF02F011EF02F0CA8FD890C731CB6FFE
:10042800C151CB13C8C0B5F0C9C0B6F0CAC0B7F047
:10043800CBC0B8F012003950800B426E39503924C5
:10044800486E38AE2AEF02F02CEF02F02DEF02F0E2
:1004580048804850D8B433EF02F035EF02F048EF47
:1004680002F04828D8A43BEF02F03DEF02F045EF38
:1004780002F0000E366E000E376E000E386E000E5B
:10048800396E388E50EF02F0000E366E000E376E61
:10049800000E386E000E396E3D50800B421A3D50EA
:1004A8003D24476E3CAE5BEF02F05DEF02F05EEF7D
:1004B80002F047804750D8B464EF02F066EF02F0CC
:1004C80079EF02F04728D8A46CEF02F06EEF02F043
:1004D80076EF02F0000E3A6E000E3B6E000E3C6E98
:1004E800000E3D6E3C8E81EF02F0000E3A6E000E5B
:1004F8003B6E000E3C6E000E3D6E4750D8B487EF41
:1005080002F089EF02F091EF02F04850D8A48FEF83
:1005180002F091EF02F09BEF02F0000E366E000E33
:10052800376E000E386E000E396E33EF04F03C5013
:100538003602F3CF4DF0F4CF4EF04D50436E446A7F
:10054800456A466A4E50496E4A6A4B6A4C6A3B5045
:100558003702F3CF4DF0F4CF4EF04D504326000E46
:100568004422452246224E504926000E4A224B225A
:100578004C223A503802F3CF4DF0F4CF4EF04D50A4
:100588004326000E4422452246224E504926000E9C
:100598004A224B224C2245C046F044C045F043C095
:1005A80044F0436A3A503702F3CF4DF0F4CF4EF09F
:1005B8004D5043264E504422000E4522000E46223E
:1005C8003B503602F3CF4DF0F4CF4EF04D5043265A
:1005D8004E504422000E4522000E462245C046F0E9
:1005E80044C045F043C044F0436A3A503602F3CF62
:1005F8004DF0F4CF4EF04D5043264E504422000E9D
:100608004522000E46223C503702F3CF4DF0F4CF7E
:100618004EF04D5049264E504A22000E4B22000EF5
:100628004C223B503802F3CF4DF0F4CF4EF04D50F2
:1006380049264E504A22000E4B22000E4C223C50B6
:100648003802F3CF4DF0F4CF4EF04D503E6E4E5081
:100658003F6E406A416A40C041F03FC040F03EC032
:100668003FF03E6A3E5049263F504A2240504B22B6
:1006780041504C2243C03EF044C03FF045C040F0DA
:1006880046C041F0190E4EEF03F0D8904132403287
:100698003F323E32E82E49EF03F03E5049263F50A4
:1006A8004A2240504B2241504C2245C046F044C09B
:1006B80045F043C044F0436A475048C03EF03F6AA3
:1006C8003E26000E3F22820E3E244D6EFF0E3F2036
:1006D8004E6E84EF03F0D89049364A364B364C3686
:1006E80046AE79EF03F07BEF03F07CEF03F049802F
:1006F800D89043364436453646364D06D8A04E0681
:100708004BAE89EF03F08BEF03F06FEF03F0000EB1
:10071800476E46AE92EF03F094EF03F0B8EF03F0A4
:10072800FF0E43143E6EFF0E44143F6EFF0E451439
:10073800406E7F0E4614416E3E503F1040104110EF
:10074800D8B4A9EF03F0ABEF03F0AFEF03F0010E5D
:10075800476EB8EF03F049A0B4EF03F0B6EF03F02B
:10076800B8EF03F0ABEF03F04750D8B4BEEF03F097
:10077800C0EF03F0E4EF03F0010E4926000E4A2211
:100788004B224C224CA0CBEF03F0CDEF03F0E4EF6B
:1007980003F049C03EF04AC03FF04BC040F04CC0A7
:1007A80041F04134413240323F323E323EC049F09E
:1007B8003FC04AF040C04BF041C04CF04D4A4E2A71
:1007C8004EBEEFEF03F04E5008E14D28D8A0EFEFF2
:1007D80003F0F1EF03F0FBEF03F0000E496E000E9B
:1007E8004A6E800E4B6E7F0E4C6E29EF04F04EBEA3
:1007F80008EF04F04E5006E14D04D8B006EF04F0BF
:1008080008EF04F014EF04F0000E496E000E4A6E73
:10081800000E4B6E000E4C6E000E426E29EF04F077
:100828004DC048F0FF0E4916FF0E4A167F0E4B16B4
:10083800000E4C1648A023EF04F025EF04F026EF35
:1008480004F04B8ED89048304C6E42504C1249C040
:1008580036F04AC037F04BC038F04CC039F01200BF
:1008680000019F51800BAC6F9F519F25B36F9EAFC6
:1008780040EF04F042EF04F043EF04F0B381B351CA
:10088800D8B449EF04F04BEF04F060EF04F0B3295B
:10089800D8A451EF04F053EF04F05BEF04F0000E1E
:1008A8009C6F000E9D6F000E9E6F000E9F6F9E8FB7
:1008B800000E9F6F68EF04F0000E9C6F000E9D6F96
:1008C800000E9E6F000E9F6FA351800BAC1BA351AF
:1008D800A325B46FA2AF73EF04F075EF04F076EFC1
:1008E80004F0B481B451D8B47CEF04F07EEF04F086
:1008F80093EF04F0B429D8A484EF04F086EF04F051
:100908008EEF04F0000EA06F000EA16F000EA26F14
:10091800000EA36FA28F000EA36F9BEF04F0000ED2
:10092800A06F000EA16F000EA26F000EA36FA05162
:10093800A111A211A311D8A4A4EF04F0A6EF04F00A
:10094800BEEF04F0000E9C6F000E9D6F000E9E6FB0
:10095800000E9F6F800E9E137F0E9F13AC519F1346
:100968009CC09CF09DC09DF09EC09EF09FC09FF0D3
:1009780001EF06F0B351D8A4C4EF04F0C6EF04F0B9
:10098800D0EF04F0000E9C6F000E9D6F000E9E6F5E
:10099800000E9F6F01EF06F0B451B3C0A4F0A56B31
:1009A800A45F000EA55B7F0EA425AD6F000EA521E8
:1009B800AE6F9CC0A8F09DC0A9F09EC0AAF09FC0D1
:1009C800ABF0000E9C6F000E9D6F000E9E6F000E28
:1009D8009F6F000EAF6F000EB06F000EB16F000E6C
:1009E800B26F000EB46F31EF05F0B451D8B4FFEF19
:1009F80004F001EF05F018EF05F0D890A837A937F3
:100A0800AA37AB37D8909C379D379E379F37B2AF00
:100A180010EF05F012EF05F013EF05F09C81D89068
:100A2800AF37B037B137B237A051A85DA151A95936
:100A3800A251AA59A351AB59D8A025EF05F027EF29
:100A480005F030EF05F0B28DA051A85FA151A95B68
:100A5800A251AA5BA351AB5BB42B190EB46537EF57
:100A680005F039EF05F0F9EF04F0A851A911AA1122
:100A7800AB11D8B442EF05F044EF05F05CEF05F098
:100A8800AF815CEF05F0D8909C379D379E379F3734
:100A9800B2AF51EF05F053EF05F054EF05F09C812C
:100AA800D890AF37B037B137B237AD07D8A0AE0757
:100AB8009EAF61EF05F063EF05F047EF05F0000E1C
:100AC800B46FB2AF6AEF05F06CEF05F090EF05F088
:100AD800FF0EAF15A46FFF0EB015A56FFF0EB11571
:100AE800A66F7F0EB215A76FA451A511A611A71165
:100AF800D8B481EF05F083EF05F087EF05F0010E1C
:100B0800B46F90EF05F09CA18CEF05F08EEF05F027
:100B180090EF05F083EF05F0B451D8B496EF05F0E7
:100B280098EF05F0BCEF05F0010E9C27000E9D2301
:100B38009E239F239FA1A3EF05F0A5EF05F0BCEF2F
:100B480005F09CC0A4F09DC0A5F09EC0A6F09FC073
:100B5800A7F0A735A733A633A533A433A4C09CF0C8
:100B6800A5C09DF0A6C09EF0A7C09FF0AD4BAE2BD0
:100B7800AEBFC7EF05F0AE5108E1AD29D8A0C7EF69
:100B880005F0C9EF05F0D4EF05F0000EAE6FAD69C2
:100B9800000E9C6F000E9D6F000E9E6F000E9F6FE3
:100BA800AEBFE1EF05F0AE5106E1AD05D8B0DFEF1D
:100BB80005F0E1EF05F0EFEF05F0000EAE6F000E67
:100BC800AD6F000E9C6F000E9D6F000E9E6F000EA5
:100BD8009F6F000EAC6FADC0B3F0B3A1F6EF05F098
:100BE800F8EF05F0FBEF05F09E8FFCEF05F09E9FF8
:100BF800D890B3319F6FB2EF04F012002050800BF1
:100C08002D6E20502024346E1FAE0DEF06F00FEF2E
:100C180006F010EF06F034803450D8B416EF06F022
:100C280018EF06F02DEF06F03428D8A41EEF06F0D2
:100C380020EF06F028EF06F0000E1D6E000E1E6E67
:100C4800000E1F6E000E206E1F8E000E206E35EFF8
:100C580006F0000E1D6E000E1E6E000E1F6E000EBA
:100C6800206E2450800B2D1A24502424356E23AE78
:100C780040EF06F042EF06F043EF06F035803550BE
:100C8800D8B449EF06F04BEF06F060EF06F03528D0
:100C9800D8A451EF06F053EF06F05BEF06F0000E14
:100CA800216E000E226E000E236E000E246E238E1F
:100CB800000E246E68EF06F0000E216E000E226E04
:100CC800000E236E000E246E2150221023102410D3
:100CD800D8A471EF06F073EF06F08BEF06F0000E64
:100CE8001D6E000E1E6E000E1F6E000E206E800E12
:100CF8001F127F0E20122D5020121DC01DF01EC085
:100D08001EF01FC01FF020C020F0CEEF07F03450B7
:100D1800D8A491EF06F093EF06F09DEF06F0000ED1
:100D28001D6E000E1E6E000E1F6E000E206ECEEFA2
:100D380007F0355034C025F0266A255E000E265A85
:100D48007F0E25242E6E000E26202F6E1DC029F042
:100D58001EC02AF01FC02BF020C02CF0000E1D6E04
:100D6800000E1E6E000E1F6E000E206E000E306EFE
:100D7800000E316E000E326E000E336E000E356EB0
:100D8800FEEF06F03550D8B4CCEF06F0CEEF06F003
:100D9800E5EF06F0D89029362A362B362C36D8902F
:100DA8001D361E361F36203633AEDDEF06F0DFEF78
:100DB80006F0E0EF06F01D80D89030363136323636
:100DC80033362150295C22502A5823502B5824505E
:100DD8002C58D8A0F2EF06F0F4EF06F0FDEF06F07D
:100DE800338C2150295E22502A5A23502B5A2450E2
:100DF8002C5A352A190E356404EF07F006EF07F070
:100E0800C6EF06F029502A102B102C10D8B40FEF7B
:100E180007F011EF07F029EF07F0308029EF07F00E
:100E2800D8901D361E361F36203633AE1EEF07F01B
:100E380020EF07F021EF07F01D80D89030363136CB
:100E4800323633362E06D8A02F061FAE2EEF07F007
:100E580030EF07F014EF07F0000E356E33AE37EFC2
:100E680007F039EF07F05DEF07F0FF0E3014256E3D
:100E7800FF0E3114266EFF0E3214276E7F0E3314C8
:100E8800286E2550261027102810D8B44EEF07F0EA
:100E980050EF07F054EF07F0010E356E5DEF07F0E5
:100EA8001DA059EF07F05BEF07F05DEF07F050EF7B
:100EB80007F03550D8B463EF07F065EF07F089EF16
:100EC80007F0010E1D26000E1E221F22202220A040
:100ED80070EF07F072EF07F089EF07F01DC025F0FB
:100EE8001EC026F01FC027F020C028F02834283262
:100EF80027322632253225C01DF026C01EF027C015
:100F08001FF028C020F02E4A2F2A2FBE94EF07F09A
:100F18002F5008E12E28D8A094EF07F096EF07F09D
:100F2800A1EF07F0000E2F6E2E68000E1D6E000E4A
:100F38001E6E000E1F6E000E206E2FBEAEEF07F065
:100F48002F5006E12E04D8B0ACEF07F0AEEF07F053
:100F5800BCEF07F0000E2F6E000E2E6E000E1D6EF9
:100F6800000E1E6E000E1F6E000E206E000E2D6EFF
:100F78002EC034F034A0C3EF07F0C5EF07F0C8EF78
:100F880007F01F8EC9EF07F01F9ED8903430206EEF
:100F98007FEF06F012000001966F00019651D8B459
:100FA800D8EF07F0DAEF07F0FCEF07F091BFE1EFB9
:100FB80007F0DFEF07F0FCEF07F08EC092F08FC06C
:100FC80093F090C094F091C095F0921F931F941FD6
:100FD800951F922B000E93239423952392C098F08B
:100FE80093C099F094C09AF095C09BF004EF08F074
:100FF8008EC098F08FC099F090C09AF091C09BF085
:101008008E518F1190119111D8A40DEF08F00FEFA8
:1010180008F019EF08F0000E8E6F000E8F6F000EAB
:10102800906F000E916FAAEF08F0960E976F23EF5E
:1010380008F0972BD8909B339A3399339833000E46
:101048009815926F000E9915936F000E9A15946F6C
:10105800FE0E9B15956F9251931194119511D8A47A
:1010680038EF08F03AEF08F01DEF08F048EF08F005
:10107800972B010E9827000E99239A239B23D8902B
:101088009B339A3399339833000E9815926F000E5C
:101098009915936F000E9A15946FFF0E9B15956F17
:1010A8009251931194119511D8A45DEF08F05FEF58
:1010B80008F03CEF08F067EF08F09707D8909837EA
:1010C80099379A379B379ABF6CEF08F06EEF08F0A4
:1010D80076EF08F0020E976174EF08F076EF08F0EB
:1010E80061EF08F097B17BEF08F07DEF08F07EEF35
:1010F80008F09A9FD890973397C092F0936B946BAF
:10110800956B92C095F0946B936B926B9251981378
:101118009351991394519A1395519B139651D8B49E
:1011280098EF08F09AEF08F0A2EF08F091BFA1EF4E
:1011380008F09FEF08F0A2EF08F09B8F98C08EF0A0
:1011480099C08FF09AC090F09BC091F01200176E72
:101158001750D8B4B2EF08F0B4EF08F0D6EF08F0A3
:1011680012BEBBEF08F0B9EF08F0D6EF08F00FC0D9
:1011780013F010C014F011C015F012C016F0131EB1
:10118800141E151E161E132A000E142215221622CE
:1011980013C019F014C01AF015C01BF016C01CF0CB
:1011A800DEEF08F00FC019F010C01AF011C01BF0E4
:1011B80012C01CF00F50101011101210D8A4E7EF35
:1011C80008F0E9EF08F0F3EF08F0000E0F6E000EDC
:1011D800106E000E116E000E126E84EF09F0960E5E
:1011E800186EFDEF08F0182AD8901C321B321A32FC
:1011F8001932000E1914136E000E1A14146E000E14
:101208001B14156EFE0E1C14166E135014101510B8
:101218001610D8A412EF09F014EF09F0F7EF08F050
:1012280022EF09F0182A010E1926000E1A221B2295
:101238001C22D8901C321B321A321932000E191493
:10124800136E000E1A14146E000E1B14156EFF0E8A
:101258001C14166E1350141015101610D8A437EF5E
:1012680009F039EF09F016EF09F041EF09F0180617
:10127800D89019361A361B361C361BBE46EF09F0B5
:1012880048EF09F050EF09F0020E18604EEF09F030
:1012980050EF09F03BEF09F018B055EF09F057EFA0
:1012A80009F058EF09F01B9ED890183218C013F0B7
:1012B800146A156A166A13C016F0156A146A136A56
:1012C8001350191214501A1215501B1216501C12D2
:1012D8001750D8B472EF09F074EF09F07CEF09F0F9
:1012E80012BE7BEF09F079EF09F07CEF09F01C8E54
:1012F80019C00FF01AC010F01BC011F01CC012F07A
:1013080012000600F3CF5FF0F4CF60F0F2A08FEF89
:1013180009F091EF09F034EF0AF081B896EF09F07F
:1013280098EF09F0C0EF09F083A89DEF09F0A0EF4E
:1013380009F08388A1EF09F0839861506210D8A45E
:10134800A8EF09F0AAEF09F0B6EF09F0000E626EF7
:10135800010E616E010E5A6E000E596EC8EC0AF04D
:10136800C0EF09F0000E626E000E616E000E5A6E3C
:10137800000E596EC8EC0AF081BAC5EF09F0C7EF44
:1013880009F0F8EF09F083AACCEF09F0CFEF09F0E4
:10139800838AD0EF09F0839A61046210D8A4D7EF4A
:1013A80009F0D9EF09F0E5EF09F0000E626E020EC0
:1013B800616E020E5A6E000E596EC8EC0AF0F8EF14
:1013C80009F0020E61186210D8A4EDEF09F0EFEFF2
:1013D80009F0F8EF09F0000E626E030E616E030E5D
:1013E8005A6E5968C8EC0AF081BCFDEF09F0FFEFAE
:1013F80009F034EF0AF083AC04EF0AF007EF0AF0C3
:10140800838C08EF0AF0839C030E61186210D8A43D
:1014180010EF0AF012EF0AF01EEF0AF0000E626EEB
:10142800020E616E020E5A6E000E596EC8EC0AF07A
:1014380034EF0AF0020E61186210D8A426EF0AF001
:1014480028EF0AF034EF0AF0000E626E010E616EAA
:10145800010E5A6E000E596EC8EC0AF034EF0AF00D
:10146800F29060C0F4FF5FC0F3FF63921100040EB6
:101478000001D95DD8B043EF0AF045EF0AF0C7EF95
:101488000AF0DEC0DAF0DFC0DBF0E0C0DCF0E1C07B
:10149800DDF0020ED890DA37DB37DC37DD37E82E9F
:1014A8004EEF0AF0DAC084F0DBC085F0DCC086F0CD
:1014B800DDC087F0000E806F2D0E816F310E826FB8
:1014C800010E836F51EC0BF080C08EF081C08FF05D
:1014D80082C090F083C091F0010ECFEC07F08EC06F
:1014E800B9F08FC0BAF090C0BBF091C0BCF0000E4C
:1014F8000001A06FC00EA16F7F0EA26F440EA36FF4
:10150800D8C08EF0D9C08FF0906B916B000ECFECE5
:1015180007F08EC09CF08FC09DF090C09EF091C0E7
:101528009FF034EC04F09CC0B5F09DC0B6F09EC0AE
:10153800B7F09FC0B8F009EC00F0B5C0CEF0B6C067
:10154800CFF0B7C0D0F0B8C0D1F05EEC0CF0CEC090
:10155800D8F0CFC0D9F0BD9A0001D8B1B6EF0AF0E3
:10156800B9EF0AF0BD88BAEF0AF0BD98D8C0DAF032
:10157800D9C0DBF00001D890DB33DA33D890DB3305
:10158800DA33DA51BE6E1200040E5A5CD8B0CFEFCF
:101598000AF0D1EF0AF050EF0BF0DEC05BF0DFC0CD
:1015A8005CF0E0C05DF0E1C05EF0020ED8905B3602
:1015B8005C365D365E36E82EDAEF0AF05BC005F081
:1015C8005CC006F05DC007F05EC008F0000E016E5A
:1015D8002D0E026E310E036E010E046ED8EC0BF068
:1015E80001C00FF002C010F003C011F004C012F0E7
:1015F800010EABEC08F00FC03AF010C03BF011C080
:101608003CF012C03DF0000E216EC00E226E7F0E1F
:10161800236E440E246E59C00FF05AC010F0116AA0
:10162800126A000EABEC08F00FC01DF010C01EF0DF
:1016380011C01FF012C020F002EC06F01DC036F0F9
:101648001EC037F01FC038F020C039F01FEC02F080
:1016580036C04FF037C050F038C051F039C052F0A2
:10166800E2EC0CF04FC059F050C05AF0BD9A59B096
:1016780040EF0BF043EF0BF0BD8844EF0BF0BD9843
:1016880059C05BF05AC05CF0D8905C325B32D8909D
:101698005C325B325B50BE6E1200000E0001896F37
:1016A80087BF5BEF0BF059EF0BF065EF0BF0871F6F
:1016B800861F851F846D000E852386238723010ED0
:1016C800896F83BF6CEF0BF06AEF0BF076EF0BF0CE
:1016D800831F821F811F806D000E81238223832335
:1016E800010E891B000E8A6F000E8B6F000E8C6F27
:1016F800000E8D6F8451851186118711D8B487EF3C
:101708000BF089EF0BF0BFEF0BF0010E886F93EF32
:101718000BF0D8908437853786378737882B87AF83
:1017280098EF0BF09AEF0BF08DEF0BF0D8908A370B
:101738008B378C378D378451805D8551815986511F
:10174800825987518359D8A0ACEF0BF0AEEF0BF05C
:10175800B7EF0BF08451805F8551815B8651825BC6
:101768008751835B8A81D890873386338533843366
:10177800882F9AEF0BF08951D8B4C5EF0BF0C7EF5B
:101788000BF0CFEF0BF08D1F8C1F8B1F8A6D000E97
:101798008B238C238D238AC080F08BC081F08CC072
:1017A80082F08DC083F01200000E0A6E08BEE1EFD1
:1017B8000BF0DFEF0BF0EBEF0BF0081E071E061E19
:1017C800056C000E062207220822010E0A6E04BECE
:1017D800F2EF0BF0F0EF0BF0FCEF0BF0041E031E22
:1017E800021E016C000E022203220422010E0A1AB4
:1017F800000E0B6E000E0C6E000E0D6E000E0E6EBF
:101808000550061007100810D8B40DEF0CF00FEFB4
:101818000CF045EF0CF0010E096E19EF0CF0D890A2
:101828000536063607360836092A08AE1EEF0CF0CC
:1018380020EF0CF013EF0CF0D8900B360C360D3669
:101848000E360550015C06500258075003580850E0
:101858000458D8A032EF0CF034EF0CF03DEF0CF048
:101868000550015E0650025A0750035A0850045AA0
:101878000B80D8900832073206320532092E20EF45
:101888000CF00A50D8B44BEF0CF04DEF0CF055EFBC
:101898000CF00E1E0D1E0C1E0B6C000E0C220D22E1
:1018A8000E220BC001F00CC002F00DC003F00EC0F8
:1018B80004F012000001D035D135D76FD751D8A424
:1018C80068EF0CF06AEF0CF074EF0CF0000ECE6FBE
:1018D800000ECF6F000ED06F000ED16FE1EF0CF04D
:1018E800CEC0D2F0CFC0D3F0D0C0D4F0D1C0D5F0A4
:1018F800200E84EF0CF0D890D533D433D333D233C1
:10190800E82E7FEF0CF0D251D66FD08FFF0ECE1796
:10191800FF0ECF17FF0ED017000ED117960ED75F08
:10192800D7BF9BEF0CF099EF0CF0B1EF0CF0D7514B
:10193800800A970FD8B0A3EF0CF0A5EF0CF0A7EF33
:101948000CF06AEF0CF0D890D133D033CF33CE33CC
:10195800D73FA7EF0CF0C9EF0CF01F0ED765B7EF14
:101968000CF0B9EF0CF0C1EF0CF06AEF0CF0D89066
:10197800CE37CF37D037D137D707D751D8A4C7EF0D
:101988000CF0C9EF0CF0BBEF0CF0D651D8B4CFEF88
:101998000CF0D1EF0CF0D9EF0CF0D11FD01FCF1FF6
:1019A800CE6D000ECF23D023D123CEC0CEF0CFC032
:1019B800CFF0D0C0D0F0D1C0D1F0120051345234A1
:1019C800586E5850D8A4EBEF0CF0EDEF0CF0F7EF91
:1019D8000CF0000E4F6E000E506E000E516E000E91
:1019E800526E64EF0DF04FC053F050C054F051C028
:1019F80055F052C056F0200E07EF0DF0D890563231
:101A0800553254325332E82E02EF0DF05350576ED0
:101A1800518EFF0E4F16FF0E5016FF0E5116000E78
:101A28005216960E585E58BE1EEF0DF01CEF0DF0C4
:101A380034EF0DF05850800A970FD8B026EF0DF00C
:101A480028EF0DF02AEF0DF0EDEF0CF0D8905232A0
:101A5800513250324F32583E2AEF0DF04CEF0DF014
:101A68001F0E58643AEF0DF03CEF0DF044EF0DF007
:101A7800EDEF0CF0D8904F365036513652365806A6
:101A88005850D8A44AEF0DF04CEF0DF03EEF0DF092
:101A98005750D8B452EF0DF054EF0DF05CEF0DF045
:101AA800521E511E501E4F6C000E502251225222BF
:101AB8004FC04FF050C050F051C051F052C052F0DA
:101AC8001200000E0001806F2D0E816F310E826FA3
:101AD800010E836F8EC092F08FC093F090C094F087
:101AE80091C095F0020ED890923793379437953776
:101AF800E82E77EF0DF0020ED8909237933794378F
:101B08009537E82E80EF0DF092C084F093C085F0F1
:101B180094C086F095C087F051EC0BF00001800569
:101B2800CB6E8EC0DEF08FC0DFF090C0E0F091C0C9
:101B3800E1F01200CEEC0DF0000E956E000E836EF3
:101B4800C7EC0DF0DCEC0DF0880E00018E6F130E63
:101B58008F6F000E906F000E916F65EC0DF0000E08
:101B68000001D96F000ED86F3BEC0AF0D5EC0DF0F0
:101B7800BCEF0DF007EF00F0626A616A6390639250
:101B880000019EEF0DF0030ECD6E000ECE6E000E1E
:101B9800CF6E120093688168000EF26EF28EF286A4
:101BA8001200BD86BD84CA80CA92CA849494120069
:0A1BB8009496949882968288120099
:020000040020DA
:08000000FFFFFFFFFFFFFFFF00
:020000040030CA
:0E000000FF071F1EFF0180FF0FC00FE00F4023
:00000001FF
