:020000040000FA
:04000000F4EF3DF0EC
:107B2200070809140405061501020316170018199F
:107B32003738392F3435362A3132332D2030232B42
:107B4200000E956E000E946E000E826E000E836E15
:107B5200380EC6EC3DF00C0EC6EC3DF0010EC6EC44
:107B62003DF0120021502302F3CF25F0F4CF26F08E
:107B720021502402F350262622502302F3502626B7
:107B820025C021F026C022F01200226E829C829A29
:107B920022C083FF828E070E216E7D0EE82EFED755
:107BA200212EFCD700F0829E140E216E7A0EE82E52
:107BB200FED7212EFCD71200226E829C828A22C01E
:107BC20083FF828E070E216E7D0EE82EFED7212EB8
:107BD200FCD700F0829E140E216E7A0EE82EFED79C
:107BE200212EFCD71200220EF66E7B0EF76E000ECF
:107BF200F86E00EE01F010EE20F00900F5CFEEFF76
:107C0200E550E150FAE100EE33F0080EEE6AE806C4
:107C1200FDE100010DEF3EF0A1EC3DF03CEC3FF048
:107C2200316E3150356E366A36BE23EF3EF0365035
:107C320007E10A0E355CD8B021EF3EF023EF3EF0AB
:107C42003BEF3EF035C029F036C02AF0C0EC3EF0E2
:107C520033C021F034C022F0000E246E0A0E236ECF
:107C6200B3EC3DF035502124336E36502220346E71
:107C72004EEF3EF033C035F034C036F0000E346EB5
:107C8200000E336EC00EC6EC3DF0010E3524296E97
:107C9200000E36202A6EC0EC3EF0020E326E040E4A
:107CA200316EBA0EE82EFED7312EFCD7322EFAD71D
:107CB20000D00FEF3EF000EF00F0000E266E24BE63
:107CC20067EF3EF065EF3EF06DEF3EF0236C241E51
:107CD200D8B0242A010E266E22BE74EF3EF072EF57
:107CE2003EF07AEF3EF0216C221ED8B0222A010E1D
:107CF200261A000E286E000E276E23502410D8B4C8
:107D020085EF3EF087EF3EF0AFEF3EF0010E256EBD
:107D12008FEF3EF0D89023362436252A24AE94EFF6
:107D22003EF096EF3EF08BEF3EF0D89027362836A5
:107D32002350215C24502258D8A0A2EF3EF0A4EF99
:107D42003EF0A9EF3EF02350215E2450225A2780B4
:107D5200D89024322332252E96EF3EF02650D8B406
:107D6200B5EF3EF0B7EF3EF0BBEF3EF0276C281EBA
:107D7200D8B0282A27C021F028C022F01200270EEE
:107D8200306E100E2F6E29C02DF02AC02EF0295011
:107D92002A10D8B4CFEF3EF0D1EF3EF0FAEF3EF02A
:107DA200E1EF3EF02FC021F030C022F0000E246E31
:107DB2000A0E236E5EEC3EF021C02FF022C030F09E
:107DC2002DC021F02EC022F02FC023F030C024F0AD
:107DD2005EEC3EF022BEF6EF3EF0225008E12104B6
:107DE200D8A0F6EF3EF0F8EF3EF0D3EF3EF0FEEF14
:107DF2003EF0000E306E010E2F6E2DC021F02EC00F
:107E020022F02FC023F030C024F05EEC3EF021C0FF
:107E12002BF022C02CF02B50300FDDEC3DF02FC0A8
:107E220021F030C022F02BC023F02CC024F0B3ECA0
:107E32003DF021502D5C2D6E22502E582E6E2FC0FB
:107E420021F030C022F0000E246E0A0E236E5EEC8A
:107E52003EF021C02FF022C030F030BE3BEF3FF0A9
:107E6200305006E12F04D8B039EF3FF03BEF3FF03E
:107E7200FEEF3EF012000F0E936E81680F0E816EC0
:107E820081500F0B3A6E0F0E8118D8B44BEF3FF0B2
:107E92004DEF3FF03FEF3FF0340E216EF20EE82E31
:107EA200FED7212EFCD781500F0B3A6E0F0E3A18D7
:107EB200D8B45EEF3FF060EF3FF04DEF3FF0680E59
:107EC200216EE40EE82EFED7212EFCD700D0815081
:107ED2000F0B3A6E0F0E3A18D8B472EF3FF074EFF0
:107EE2003FF04DEF3FF0EF0E816E81500F0B3A6E77
:107EF2000F0E3A18D8B480EF3FF082EF3FF086EFD2
:107F02003FF0000E396EBAEF3FF0DF0E816E815006
:107F12000F0B3A6E0F0E3A18D8B492EF3FF094EF6F
:107F22003FF098EF3FF0010E396EBAEF3FF0BF0E0F
:107F3200816E81500F0B3A6E0F0E3A18D8B4A4EF2F
:107F42003FF0A6EF3FF0AAEF3FF0020E396EBAEF14
:107F52003FF0EF0E816E81500F0B3A6E0F0E3A1802
:107F6200D8B4B6EF3FF0B8EF3FF03CEF3FF0030E6E
:107F7200396E0E0E3A18D8A4C1EF3FF0C3EF3FF0AE
:107F8200CEEF3FF03950040D040EF324D96E000EEB
:107F9200F420DA6EDF50FFEF3FF00D0E3A18D8A44E
:107FA200D5EF3FF0D7EF3FF0E2EF3FF03950040D4D
:107FB200030EF324D96E000EF420DA6EDF50FFEFC9
:107FC2003FF00B0E3A18D8A4E9EF3FF0EBEF3FF089
:107FD200F6EF3FF03950040D020EF324D96E000E75
:107FE200F420DA6EDF50FFEF3FF03950040D010E3E
:0E7FF200F324D96E000EF420DA6EDF50120078
:020000040020DA
:08000000FFFFFFFFFFFFFFFF00
:020000040030CA
:0E000000FF071F1EFF0180FF0FC00FE00F4023
:00000001FF
